{
  "_format": "hh-sol-artifact-1",
  "contractName": "NFTFactory",
  "sourceName": "contracts/NFTFactory.sol",
  "abi": [
    {
      "inputs": [
        {
          "internalType": "address",
          "name": "_erc721Implementation",
          "type": "address"
        },
        {
          "internalType": "address",
          "name": "_erc1155Implementation",
          "type": "address"
        },
        {
          "internalType": "address",
          "name": "_protocolManager",
          "type": "address"
        }
      ],
      "stateMutability": "nonpayable",
      "type": "constructor"
    },
    {
      "inputs": [],
      "name": "MaxSupplyRequired",
      "type": "error"
    },
    {
      "anonymous": false,
      "inputs": [
        {
          "indexed": true,
          "internalType": "address",
          "name": "collection",
          "type": "address"
        },
        {
          "indexed": true,
          "internalType": "address",
          "name": "creator",
          "type": "address"
        },
        {
          "indexed": false,
          "internalType": "enum PrizeTypes.Standard",
          "name": "standard",
          "type": "uint8"
        },
        {
          "indexed": false,
          "internalType": "string",
          "name": "description",
          "type": "string"
        }
      ],
      "name": "CollectionDeployed",
      "type": "event"
    },
    {
      "anonymous": false,
      "inputs": [
        {
          "indexed": true,
          "internalType": "address",
          "name": "collection",
          "type": "address"
        },
        {
          "indexed": false,
          "internalType": "string",
          "name": "dropURI",
          "type": "string"
        },
        {
          "indexed": false,
          "internalType": "string",
          "name": "unrevealedURI",
          "type": "string"
        },
        {
          "indexed": false,
          "internalType": "bytes32",
          "name": "dropURIHash",
          "type": "bytes32"
        },
        {
          "indexed": false,
          "internalType": "bytes32",
          "name": "unrevealedURIHash",
          "type": "bytes32"
        }
      ],
      "name": "CollectionURIsSet",
      "type": "event"
    },
    {
      "anonymous": false,
      "inputs": [
        {
          "indexed": true,
          "internalType": "address",
          "name": "erc721Implementation",
          "type": "address"
        },
        {
          "indexed": true,
          "internalType": "address",
          "name": "erc1155Implementation",
          "type": "address"
        }
      ],
      "name": "ImplementationAddressesUpdated",
      "type": "event"
    },
    {
      "anonymous": false,
      "inputs": [
        {
          "indexed": true,
          "internalType": "address",
          "name": "previousOwner",
          "type": "address"
        },
        {
          "indexed": true,
          "internalType": "address",
          "name": "newOwner",
          "type": "address"
        }
      ],
      "name": "OwnershipTransferred",
      "type": "event"
    },
    {
      "inputs": [
        {
          "internalType": "string",
          "name": "uri",
          "type": "string"
        }
      ],
      "name": "computeURIHash",
      "outputs": [
        {
          "internalType": "bytes32",
          "name": "",
          "type": "bytes32"
        }
      ],
      "stateMutability": "pure",
      "type": "function"
    },
    {
      "inputs": [
        {
          "internalType": "enum PrizeTypes.Standard",
          "name": "standard",
          "type": "uint8"
        },
        {
          "internalType": "string",
          "name": "name",
          "type": "string"
        },
        {
          "internalType": "string",
          "name": "symbol",
          "type": "string"
        },
        {
          "internalType": "string",
          "name": "baseURI",
          "type": "string"
        },
        {
          "internalType": "string",
          "name": "dropURI",
          "type": "string"
        },
        {
          "internalType": "bytes32",
          "name": "dropURIHash",
          "type": "bytes32"
        },
        {
          "internalType": "address",
          "name": "initialOwner",
          "type": "address"
        },
        {
          "internalType": "uint96",
          "name": "royaltyBps",
          "type": "uint96"
        },
        {
          "internalType": "address",
          "name": "royaltyRecipient",
          "type": "address"
        },
        {
          "internalType": "uint64",
          "name": "maxSupply",
          "type": "uint64"
        },
        {
          "internalType": "enum PrizeTypes.RevealType",
          "name": "revealType",
          "type": "uint8"
        },
        {
          "internalType": "string",
          "name": "unrevealedURI",
          "type": "string"
        },
        {
          "internalType": "bytes32",
          "name": "unrevealedURIHash",
          "type": "bytes32"
        },
        {
          "internalType": "uint48",
          "name": "revealTime",
          "type": "uint48"
        },
        {
          "internalType": "string",
          "name": "description",
          "type": "string"
        }
      ],
      "name": "deployCollection",
      "outputs": [
        {
          "internalType": "address",
          "name": "",
          "type": "address"
        }
      ],
      "stateMutability": "nonpayable",
      "type": "function"
    },
    {
      "inputs": [],
      "name": "erc1155Implementation",
      "outputs": [
        {
          "internalType": "address",
          "name": "",
          "type": "address"
        }
      ],
      "stateMutability": "view",
      "type": "function"
    },
    {
      "inputs": [],
      "name": "erc721Implementation",
      "outputs": [
        {
          "internalType": "address",
          "name": "",
          "type": "address"
        }
      ],
      "stateMutability": "view",
      "type": "function"
    },
    {
      "inputs": [],
      "name": "owner",
      "outputs": [
        {
          "internalType": "address",
          "name": "",
          "type": "address"
        }
      ],
      "stateMutability": "view",
      "type": "function"
    },
    {
      "inputs": [],
      "name": "protocolManager",
      "outputs": [
        {
          "internalType": "address",
          "name": "",
          "type": "address"
        }
      ],
      "stateMutability": "view",
      "type": "function"
    },
    {
      "inputs": [],
      "name": "renounceOwnership",
      "outputs": [],
      "stateMutability": "nonpayable",
      "type": "function"
    },
    {
      "inputs": [
        {
          "internalType": "address",
          "name": "newOwner",
          "type": "address"
        }
      ],
      "name": "transferOwnership",
      "outputs": [],
      "stateMutability": "nonpayable",
      "type": "function"
    },
    {
      "inputs": [
        {
          "internalType": "address",
          "name": "_erc721Implementation",
          "type": "address"
        },
        {
          "internalType": "address",
          "name": "_erc1155Implementation",
          "type": "address"
        }
      ],
      "name": "updateImplementationAddresses",
      "outputs": [],
      "stateMutability": "nonpayable",
      "type": "function"
    }
  ],
  "bytecode": "0x6080346100dc57601f610e3f38819003918201601f19168301916001600160401b038311848410176100e1578084926060946040528339810103126100dc57610047816100f7565b61005f6040610058602085016100f7565b93016100f7565b600080546001600160a01b03198082163390811784556040519691956001600160a01b0395948694859391908416907f8be0079c531659141344cd1fd0a4f28419497f9722a3daafe3b4186f6b6457e09080a3168560015416176001551683600254161760025516906003541617600355610d33908161010c8239f35b600080fd5b634e487b7160e01b600052604160045260246000fd5b51906001600160a01b03821682036100dc5756fe6080604052600436101561001257600080fd5b6000803560e01c806335dae1041461090257806343e8a303146108b75780634a80a3191461088e5780636e204c4114610865578063715018a61461080b5780638da5cb5b146107e4578063ab4b6692146107bb578063d618ba13146101485763f2fde38b1461008057600080fd5b3461014557602036600319011261014557610099610a17565b6100a1610a5f565b6001600160a01b039081169081156100f157600054826001600160601b0360a01b821617600055167f8be0079c531659141344cd1fd0a4f28419497f9722a3daafe3b4186f6b6457e0600080a380f35b60405162461bcd60e51b815260206004820152602660248201527f4f776e61626c653a206e6577206f776e657220697320746865207a65726f206160448201526564647265737360d01b6064820152608490fd5b80fd5b5034610145576101e036600319011261014557600480351015610145576024356001600160401b03811161057457610184903690600401610a32565b916044356001600160401b038111610574576101a4903690600401610a32565b6064949194356001600160401b0381116107b7576101c6903690600401610a32565b90946084356001600160401b03811161058c576101e7903690600401610a32565b95909360c435926001600160a01b03841684036106dd576001600160601b0360e4351660e435036106dd57610104356001600160a01b03811690036106dd5761012435966001600160401b03881688036107b75760036101443510156107b757610164356001600160401b0381116107b357610267903690600401610a32565b98909b6101a4359b65ffffffffffff8d168d036107af576001600160401b036101c435116107af57918998979593918c9795938f8d906102ad366101c435600401610a32565b9d909b80610749575b5050816106e1575b50508699879a600435156000146105a257506001600160401b03841615610590576001546102f4906001600160a01b0316610c69565b9f600160a01b6001900360035416946040519561031087610ab7565b6001600160a01b038c811688526020880191909152610104351660408701526001600160601b0360e4351660608701526001600160401b0316608086015261035e6101443560a08701610b4e565b65ffffffffffff1660c0850152369061037692610afc565b60e08301526101843561010083015260a4356101208301526001600160a01b038e163b1561058c5792856103d4938f936103f8906103e684986040519a8b998a98899763e9a20d0360e01b8952606060048a01526064890191610c48565b86810360031901602488015291610c48565b83810360031901604485015290610b70565b03926001600160a01b03165af1801561056957908291610578575b50505b6003546001600160a01b0316803b1561057457604051634a2e22d360e01b81526001600160a01b038b1660048201529082908290602490829084905af1801561056957908291610555575b50506040519361054157509387602099947fd5d4f8d8831090cac4f428097ff459fa5807ac8c35665e6dd053551acf13473a857fc01b322eae12e38220a1cd26e36ca79cc0dc232ff84edb85f0bf8a3224d5d68499966104eb6105009761050d9b6004358452602060409085015260018060a01b03169660018060a01b0316956040840191610c48565b0390a360405196608088526080880191610c48565b9185830388870152610c48565b60a43560408401526101843560608401526001600160a01b038416929081900390a26040516001600160a01b039091168152f35b634e487b7160e01b81526021600452602490fd5b61055e90610ae9565b610145578038610461565b6040513d84823e3d90fd5b5080fd5b61058190610ae9565b610145578038610413565b8580fd5b604051630c2aa09b60e41b8152600490fd5b9f96509950925050915083966001600435146105c2575b50505050610416565b61065b92939c5065ffffffffffff6105e360018060a01b0360025416610c69565b600354604051919f91966001600160401b03916001600160a01b031661060889610ab7565b6001600160a01b038b81168a5260208a01919091526101043516604089015260e4356001600160601b0316606089015216608087015261064e6101443560a08801610b4e565b1660c08501523691610afc565b60e08201526101843561010082015260a4356101208201526001600160a01b038a1690813b156106dd576106b7839283926040519485809481936311fb959d60e11b835260016004840152604060248401526044830190610b70565b03925af18015610569576106ce575b8080806105b9565b6106d790610ae9565b386106c6565b8280fd5b6106ec913691610afc565b805160206101843592012003610704578f8d906102be565b60405162461bcd60e51b815260206004820152601c60248201527f556e72657665616c6564205552492068617368206d69736d61746368000000006044820152606490fd5b610757935036925090610afc565b8051602060a43592012003610771578f8d908f8e906102b6565b60405162461bcd60e51b8152602060048201526016602482015275088e4dee040aaa49240d0c2e6d040dad2e6dac2e8c6d60531b6044820152606490fd5b8680fd5b8480fd5b8380fd5b50346101455780600319360112610145576003546040516001600160a01b039091168152602090f35b5034610145578060031936011261014557546040516001600160a01b039091168152602090f35b5034610145578060031936011261014557610824610a5f565b80546001600160a01b03198116825581906001600160a01b03167f8be0079c531659141344cd1fd0a4f28419497f9722a3daafe3b4186f6b6457e08280a380f35b50346101455780600319360112610145576002546040516001600160a01b039091168152602090f35b50346101455780600319360112610145576001546040516001600160a01b039091168152602090f35b503461014557602036600319011261014557600435906001600160401b0382116101455760206108f46108ed3660048601610a32565b3691610afc565b818151910120604051908152f35b50346101455760403660031901126101455761091c610a17565b6001600160a01b0360243581811692908390036107b75761093b610a5f565b1680156109d257811561098d57816001600160601b0360a01b8281600154161760015560025416176002557f8d89b7ca58fec8300cb972e8793011bccc6a8dcf68373e98115621d5cf0adc3c8380a380f35b60405162461bcd60e51b815260206004820152601e60248201527f496e76616c6964204552433131353520696d706c656d656e746174696f6e00006044820152606490fd5b60405162461bcd60e51b815260206004820152601d60248201527f496e76616c69642045524337323120696d706c656d656e746174696f6e0000006044820152606490fd5b600435906001600160a01b0382168203610a2d57565b600080fd5b9181601f84011215610a2d578235916001600160401b038311610a2d5760208381860195010111610a2d57565b6000546001600160a01b03163303610a7357565b606460405162461bcd60e51b815260206004820152602060248201527f4f776e61626c653a2063616c6c6572206973206e6f7420746865206f776e65726044820152fd5b61014081019081106001600160401b03821117610ad357604052565b634e487b7160e01b600052604160045260246000fd5b6001600160401b038111610ad357604052565b9291926001600160401b0391828111610ad35760405192601f8201601f19908116603f0116840190811184821017610ad357604052829481845281830111610a2d578281602093846000960137010152565b6003821015610b5a5752565b634e487b7160e01b600052602160045260246000fd5b9060018060a01b038083511682526020908082850151168284015260408401511660408301526001600160601b0360608401511660608301526001600160401b03608084015116608083015260a08301516003811015610b5a5760a083015265ffffffffffff60c08401511660c083015260e083015190610140918260e08501528051809385015260005b838110610c335750505061016092600084838501015261010080820151908401526101208091015190830152601f8019910116010190565b81810183015185820161016001528201610bfb565b908060209392818452848401376000828201840152601f01601f1916010190565b6e5af43d82803e903d91602b57fd5bf390763d602d80600a3d3981f3363d3d373d3d3d363d7300000062ffffff8260881c161760005260781b17602052603760096000f0906001600160a01b03821615610cbf57565b60405162461bcd60e51b8152602060048201526016602482015275115490cc4c4d8dce8818dc99585d194819985a5b195960521b6044820152606490fdfea26469706673582212203523dfaf93e30f9a6354496a5a0d99f69cb365691c2a8b6b344db559b92fb57c64736f6c63430008130033",
  "linkReferences": {},
  "deployedLinkReferences": {}
}