{
  "_format": "hh-sol-artifact-1",
  "contractName": "Pool",
  "sourceName": "contracts/Pool.sol",
  "abi": [
    {
      "inputs": [
        {
          "internalType": "address",
          "name": "_factory",
          "type": "address"
        }
      ],
      "stateMutability": "nonpayable",
      "type": "constructor"
    },
    {
      "inputs": [],
      "name": "ArrayLengthMismatch",
      "type": "error"
    },
    {
      "inputs": [],
      "name": "BatchTooLarge",
      "type": "error"
    },
    {
      "inputs": [],
      "name": "CreatorNotAllowed",
      "type": "error"
    },
    {
      "inputs": [],
      "name": "ExceedsMaxSlots",
      "type": "error"
    },
    {
      "inputs": [],
      "name": "ExceedsSlotLimit",
      "type": "error"
    },
    {
      "inputs": [],
      "name": "ExceedsWinnersCount",
      "type": "error"
    },
    {
      "inputs": [],
      "name": "IncorrectPayment",
      "type": "error"
    },
    {
      "inputs": [],
      "name": "InvalidNonPrizedPurchase",
      "type": "error"
    },
    {
      "inputs": [],
      "name": "InvalidPoolState",
      "type": "error"
    },
    {
      "inputs": [],
      "name": "InvalidPrizeAmount",
      "type": "error"
    },
    {
      "inputs": [],
      "name": "InvalidPrizeCollection",
      "type": "error"
    },
    {
      "inputs": [],
      "name": "InvalidPrizeType",
      "type": "error"
    },
    {
      "inputs": [],
      "name": "InvalidState",
      "type": "error"
    },
    {
      "inputs": [],
      "name": "InvalidWinnerAddress",
      "type": "error"
    },
    {
      "inputs": [],
      "name": "MintingNotSupported",
      "type": "error"
    },
    {
      "inputs": [],
      "name": "NoPrizesClaimedYet",
      "type": "error"
    },
    {
      "inputs": [],
      "name": "NoPrizesToClaim",
      "type": "error"
    },
    {
      "inputs": [],
      "name": "NotAWinner",
      "type": "error"
    },
    {
      "inputs": [],
      "name": "OnlyOperator",
      "type": "error"
    },
    {
      "inputs": [],
      "name": "PoolDurationElapsed",
      "type": "error"
    },
    {
      "inputs": [],
      "name": "PoolNotActive",
      "type": "error"
    },
    {
      "inputs": [],
      "name": "PrizeTransferFailed",
      "type": "error"
    },
    {
      "inputs": [],
      "name": "ProtocolAdminNotAllowed",
      "type": "error"
    },
    {
      "inputs": [],
      "name": "SocialEngagementNotConfigured",
      "type": "error"
    },
    {
      "inputs": [],
      "name": "TimestampDelayIssue",
      "type": "error"
    },
    {
      "inputs": [],
      "name": "UnauthorizedCaller",
      "type": "error"
    },
    {
      "inputs": [],
      "name": "ZeroAddress",
      "type": "error"
    },
    {
      "inputs": [],
      "name": "ZeroQuantity",
      "type": "error"
    },
    {
      "inputs": [],
      "name": "ZeroSlotFee",
      "type": "error"
    },
    {
      "anonymous": false,
      "inputs": [
        {
          "indexed": false,
          "internalType": "string",
          "name": "reason",
          "type": "string"
        }
      ],
      "name": "BatchProcessingFailed",
      "type": "event"
    },
    {
      "anonymous": false,
      "inputs": [
        {
          "indexed": false,
          "internalType": "bytes",
          "name": "lowLevelData",
          "type": "bytes"
        }
      ],
      "name": "BatchProcessingFailedBytes",
      "type": "event"
    },
    {
      "anonymous": false,
      "inputs": [
        {
          "indexed": true,
          "internalType": "address",
          "name": "revenueRecipient",
          "type": "address"
        },
        {
          "indexed": false,
          "internalType": "uint256",
          "name": "amount",
          "type": "uint256"
        }
      ],
      "name": "CreatorRevenueCalculated",
      "type": "event"
    },
    {
      "anonymous": false,
      "inputs": [
        {
          "indexed": true,
          "internalType": "address",
          "name": "revenueRecipient",
          "type": "address"
        },
        {
          "indexed": false,
          "internalType": "uint256",
          "name": "amount",
          "type": "uint256"
        }
      ],
      "name": "CreatorRevenueWithdrawn",
      "type": "event"
    },
    {
      "anonymous": false,
      "inputs": [
        {
          "indexed": true,
          "internalType": "address",
          "name": "winner",
          "type": "address"
        },
        {
          "indexed": false,
          "internalType": "string",
          "name": "reason",
          "type": "string"
        }
      ],
      "name": "MintingFailed",
      "type": "event"
    },
    {
      "anonymous": false,
      "inputs": [
        {
          "indexed": true,
          "internalType": "address",
          "name": "previousOwner",
          "type": "address"
        },
        {
          "indexed": true,
          "internalType": "address",
          "name": "newOwner",
          "type": "address"
        }
      ],
      "name": "OwnershipTransferred",
      "type": "event"
    },
    {
      "anonymous": false,
      "inputs": [
        {
          "indexed": false,
          "internalType": "address",
          "name": "account",
          "type": "address"
        }
      ],
      "name": "Paused",
      "type": "event"
    },
    {
      "anonymous": false,
      "inputs": [
        {
          "indexed": false,
          "internalType": "uint256",
          "name": "timestamp",
          "type": "uint256"
        }
      ],
      "name": "PoolActivated",
      "type": "event"
    },
    {
      "anonymous": false,
      "inputs": [
        {
          "indexed": false,
          "internalType": "uint256",
          "name": "timestamp",
          "type": "uint256"
        }
      ],
      "name": "PoolEnded",
      "type": "event"
    },
    {
      "anonymous": false,
      "inputs": [
        {
          "indexed": true,
          "internalType": "address",
          "name": "winner",
          "type": "address"
        },
        {
          "indexed": false,
          "internalType": "uint256",
          "name": "amount",
          "type": "uint256"
        }
      ],
      "name": "PrizeClaimed",
      "type": "event"
    },
    {
      "anonymous": false,
      "inputs": [
        {
          "indexed": false,
          "internalType": "uint256",
          "name": "requestId",
          "type": "uint256"
        },
        {
          "indexed": true,
          "internalType": "address",
          "name": "caller",
          "type": "address"
        }
      ],
      "name": "RandomRequested",
      "type": "event"
    },
    {
      "anonymous": false,
      "inputs": [
        {
          "indexed": true,
          "internalType": "address",
          "name": "participant",
          "type": "address"
        },
        {
          "indexed": false,
          "internalType": "uint256",
          "name": "amount",
          "type": "uint256"
        }
      ],
      "name": "RefundClaimed",
      "type": "event"
    },
    {
      "anonymous": false,
      "inputs": [
        {
          "indexed": true,
          "internalType": "uint256",
          "name": "batchNumber",
          "type": "uint256"
        },
        {
          "indexed": false,
          "internalType": "uint256",
          "name": "participantCount",
          "type": "uint256"
        },
        {
          "indexed": false,
          "internalType": "uint256",
          "name": "shuffleStartIndex",
          "type": "uint256"
        },
        {
          "indexed": false,
          "internalType": "uint256",
          "name": "batchSize",
          "type": "uint256"
        }
      ],
      "name": "SelectionStarted",
      "type": "event"
    },
    {
      "anonymous": false,
      "inputs": [
        {
          "indexed": true,
          "internalType": "address",
          "name": "participant",
          "type": "address"
        },
        {
          "indexed": false,
          "internalType": "uint256",
          "name": "quantity",
          "type": "uint256"
        }
      ],
      "name": "SlotsPurchased",
      "type": "event"
    },
    {
      "anonymous": false,
      "inputs": [
        {
          "indexed": false,
          "internalType": "address",
          "name": "account",
          "type": "address"
        }
      ],
      "name": "Unpaused",
      "type": "event"
    },
    {
      "anonymous": false,
      "inputs": [
        {
          "indexed": false,
          "internalType": "address[]",
          "name": "winners",
          "type": "address[]"
        }
      ],
      "name": "WinnersSelected",
      "type": "event"
    },
    {
      "inputs": [
        {
          "internalType": "uint256",
          "name": "batchRandomSeed",
          "type": "uint256"
        }
      ],
      "name": "_processBatchWithRandomness",
      "outputs": [],
      "stateMutability": "nonpayable",
      "type": "function"
    },
    {
      "inputs": [
        {
          "internalType": "address",
          "name": "participant",
          "type": "address"
        }
      ],
      "name": "_processRefundExternal",
      "outputs": [
        {
          "internalType": "uint256",
          "name": "",
          "type": "uint256"
        }
      ],
      "stateMutability": "nonpayable",
      "type": "function"
    },
    {
      "inputs": [],
      "name": "amountPerWinner",
      "outputs": [
        {
          "internalType": "uint256",
          "name": "",
          "type": "uint256"
        }
      ],
      "stateMutability": "view",
      "type": "function"
    },
    {
      "inputs": [],
      "name": "batchCount",
      "outputs": [
        {
          "internalType": "uint256",
          "name": "",
          "type": "uint256"
        }
      ],
      "stateMutability": "view",
      "type": "function"
    },
    {
      "inputs": [
        {
          "internalType": "address[]",
          "name": "winnerAddresses",
          "type": "address[]"
        }
      ],
      "name": "batchMintToWinners",
      "outputs": [
        {
          "internalType": "uint256",
          "name": "successfulMints",
          "type": "uint256"
        }
      ],
      "stateMutability": "nonpayable",
      "type": "function"
    },
    {
      "inputs": [
        {
          "internalType": "uint256",
          "name": "",
          "type": "uint256"
        }
      ],
      "name": "batchRandomSeeds",
      "outputs": [
        {
          "internalType": "uint256",
          "name": "",
          "type": "uint256"
        }
      ],
      "stateMutability": "view",
      "type": "function"
    },
    {
      "inputs": [],
      "name": "claimCreatorPoints",
      "outputs": [],
      "stateMutability": "nonpayable",
      "type": "function"
    },
    {
      "inputs": [],
      "name": "claimParticipantPoints",
      "outputs": [],
      "stateMutability": "nonpayable",
      "type": "function"
    },
    {
      "inputs": [],
      "name": "claimPrize",
      "outputs": [],
      "stateMutability": "nonpayable",
      "type": "function"
    },
    {
      "inputs": [],
      "name": "claimRefund",
      "outputs": [],
      "stateMutability": "nonpayable",
      "type": "function"
    },
    {
      "inputs": [
        {
          "internalType": "address",
          "name": "",
          "type": "address"
        }
      ],
      "name": "claimedWins",
      "outputs": [
        {
          "internalType": "uint256",
          "name": "",
          "type": "uint256"
        }
      ],
      "stateMutability": "view",
      "type": "function"
    },
    {
      "inputs": [],
      "name": "closePool",
      "outputs": [],
      "stateMutability": "nonpayable",
      "type": "function"
    },
    {
      "inputs": [],
      "name": "creationFeePercentage",
      "outputs": [
        {
          "internalType": "uint256",
          "name": "",
          "type": "uint256"
        }
      ],
      "stateMutability": "view",
      "type": "function"
    },
    {
      "inputs": [],
      "name": "creator",
      "outputs": [
        {
          "internalType": "address",
          "name": "",
          "type": "address"
        }
      ],
      "stateMutability": "view",
      "type": "function"
    },
    {
      "inputs": [],
      "name": "currentBatchSize",
      "outputs": [
        {
          "internalType": "uint256",
          "name": "",
          "type": "uint256"
        }
      ],
      "stateMutability": "view",
      "type": "function"
    },
    {
      "inputs": [],
      "name": "deletePool",
      "outputs": [],
      "stateMutability": "nonpayable",
      "type": "function"
    },
    {
      "inputs": [],
      "name": "duration",
      "outputs": [
        {
          "internalType": "uint128",
          "name": "",
          "type": "uint128"
        }
      ],
      "stateMutability": "view",
      "type": "function"
    },
    {
      "inputs": [],
      "name": "endTime",
      "outputs": [
        {
          "internalType": "uint256",
          "name": "",
          "type": "uint256"
        }
      ],
      "stateMutability": "view",
      "type": "function"
    },
    {
      "inputs": [],
      "name": "erc20PrizeAmount",
      "outputs": [
        {
          "internalType": "uint256",
          "name": "",
          "type": "uint256"
        }
      ],
      "stateMutability": "view",
      "type": "function"
    },
    {
      "inputs": [],
      "name": "erc20PrizeToken",
      "outputs": [
        {
          "internalType": "address",
          "name": "",
          "type": "address"
        }
      ],
      "stateMutability": "view",
      "type": "function"
    },
    {
      "inputs": [],
      "name": "erc721EscrowClaimed",
      "outputs": [
        {
          "internalType": "bool",
          "name": "",
          "type": "bool"
        }
      ],
      "stateMutability": "view",
      "type": "function"
    },
    {
      "inputs": [],
      "name": "getParticipantsCount",
      "outputs": [
        {
          "internalType": "uint256",
          "name": "",
          "type": "uint256"
        }
      ],
      "stateMutability": "view",
      "type": "function"
    },
    {
      "inputs": [
        {
          "internalType": "address",
          "name": "participant",
          "type": "address"
        }
      ],
      "name": "getRefundableAmount",
      "outputs": [
        {
          "internalType": "uint256",
          "name": "",
          "type": "uint256"
        }
      ],
      "stateMutability": "view",
      "type": "function"
    },
    {
      "inputs": [],
      "name": "getSlotLimit",
      "outputs": [
        {
          "internalType": "uint256",
          "name": "",
          "type": "uint256"
        }
      ],
      "stateMutability": "view",
      "type": "function"
    },
    {
      "inputs": [
        {
          "internalType": "address",
          "name": "participant",
          "type": "address"
        }
      ],
      "name": "getSlotsPurchased",
      "outputs": [
        {
          "internalType": "uint256",
          "name": "",
          "type": "uint256"
        }
      ],
      "stateMutability": "view",
      "type": "function"
    },
    {
      "inputs": [
        {
          "internalType": "address",
          "name": "",
          "type": "address"
        }
      ],
      "name": "hasClaimedFeeRefund",
      "outputs": [
        {
          "internalType": "bool",
          "name": "",
          "type": "bool"
        }
      ],
      "stateMutability": "view",
      "type": "function"
    },
    {
      "inputs": [
        {
          "internalType": "address",
          "name": "",
          "type": "address"
        }
      ],
      "name": "hasCompletedSocialEngagement",
      "outputs": [
        {
          "internalType": "bool",
          "name": "",
          "type": "bool"
        }
      ],
      "stateMutability": "view",
      "type": "function"
    },
    {
      "inputs": [],
      "name": "holderData",
      "outputs": [
        {
          "internalType": "address",
          "name": "holderTokenAddress",
          "type": "address"
        },
        {
          "internalType": "enum PrizeTypes.Standard",
          "name": "holderTokenStandard",
          "type": "uint8"
        },
        {
          "internalType": "uint256",
          "name": "minHolderTokenBalance",
          "type": "uint256"
        },
        {
          "internalType": "uint256",
          "name": "holderTokenId",
          "type": "uint256"
        }
      ],
      "stateMutability": "view",
      "type": "function"
    },
    {
      "inputs": [],
      "name": "holderTokenAddress",
      "outputs": [
        {
          "internalType": "address",
          "name": "",
          "type": "address"
        }
      ],
      "stateMutability": "view",
      "type": "function"
    },
    {
      "inputs": [],
      "name": "holderTokenId",
      "outputs": [
        {
          "internalType": "uint256",
          "name": "",
          "type": "uint256"
        }
      ],
      "stateMutability": "view",
      "type": "function"
    },
    {
      "inputs": [],
      "name": "holderTokenStandard",
      "outputs": [
        {
          "internalType": "enum PrizeTypes.Standard",
          "name": "",
          "type": "uint8"
        }
      ],
      "stateMutability": "view",
      "type": "function"
    },
    {
      "inputs": [],
      "name": "i_vrfCoordinator",
      "outputs": [
        {
          "internalType": "contract VRFCoordinatorV2PlusInterface",
          "name": "",
          "type": "address"
        }
      ],
      "stateMutability": "view",
      "type": "function"
    },
    {
      "inputs": [
        {
          "components": [
            {
              "internalType": "address",
              "name": "manager",
              "type": "address"
            },
            {
              "internalType": "address",
              "name": "revenueRecipient",
              "type": "address"
            },
            {
              "internalType": "string",
              "name": "name",
              "type": "string"
            },
            {
              "internalType": "uint256",
              "name": "slotLimit",
              "type": "uint256"
            },
            {
              "internalType": "uint256",
              "name": "maxSlotsPerAddress",
              "type": "uint256"
            },
            {
              "internalType": "uint256",
              "name": "winnersCount",
              "type": "uint256"
            },
            {
              "internalType": "bool",
              "name": "isCollabPool",
              "type": "bool"
            },
            {
              "internalType": "bool",
              "name": "usesCustomFee",
              "type": "bool"
            },
            {
              "internalType": "bool",
              "name": "isExternalCollection",
              "type": "bool"
            },
            {
              "internalType": "bool",
              "name": "hasCreatorFeeDiscount",
              "type": "bool"
            },
            {
              "internalType": "bool",
              "name": "isPotPrize",
              "type": "bool"
            },
            {
              "internalType": "uint256",
              "name": "protocolFeePercentage",
              "type": "uint256"
            },
            {
              "internalType": "uint256",
              "name": "creationFeePercentage",
              "type": "uint256"
            },
            {
              "internalType": "uint256",
              "name": "globalSlotFee",
              "type": "uint256"
            }
          ],
          "internalType": "struct Pool.PoolConfig",
          "name": "_poolConfig",
          "type": "tuple"
        },
        {
          "components": [
            {
              "internalType": "enum PrizeTypes.Standard",
              "name": "standard",
              "type": "uint8"
            },
            {
              "internalType": "address",
              "name": "prizeCollection",
              "type": "address"
            },
            {
              "internalType": "uint256",
              "name": "prizeTokenId",
              "type": "uint256"
            },
            {
              "internalType": "uint256",
              "name": "amountPerWinner",
              "type": "uint256"
            },
            {
              "internalType": "address",
              "name": "erc20PrizeToken",
              "type": "address"
            },
            {
              "internalType": "uint256",
              "name": "erc20PrizeAmount",
              "type": "uint256"
            },
            {
              "internalType": "uint256",
              "name": "nativePrizeAmount",
              "type": "uint256"
            },
            {
              "internalType": "bool",
              "name": "isEscrowedPrize",
              "type": "bool"
            }
          ],
          "internalType": "struct Pool.PrizeConfig",
          "name": "_prizeConfig",
          "type": "tuple"
        },
        {
          "components": [
            {
              "internalType": "address",
              "name": "holderTokenAddress",
              "type": "address"
            },
            {
              "internalType": "enum PrizeTypes.Standard",
              "name": "holderTokenStandard",
              "type": "uint8"
            },
            {
              "internalType": "uint256",
              "name": "minHolderTokenBalance",
              "type": "uint256"
            },
            {
              "internalType": "uint256",
              "name": "holderTokenId",
              "type": "uint256"
            }
          ],
          "internalType": "struct Pool.HolderConfig",
          "name": "_holderConfig",
          "type": "tuple"
        },
        {
          "internalType": "bool",
          "name": "_socialEngagementRequired",
          "type": "bool"
        },
        {
          "internalType": "address",
          "name": "_creator",
          "type": "address"
        },
        {
          "internalType": "uint256",
          "name": "_startTime",
          "type": "uint256"
        },
        {
          "internalType": "uint256",
          "name": "_duration",
          "type": "uint256"
        },
        {
          "internalType": "uint256",
          "name": "_slotFee",
          "type": "uint256"
        },
        {
          "internalType": "bool",
          "name": "_isPrized",
          "type": "bool"
        }
      ],
      "name": "initialize",
      "outputs": [],
      "stateMutability": "payable",
      "type": "function"
    },
    {
      "inputs": [],
      "name": "isCollabPool",
      "outputs": [
        {
          "internalType": "bool",
          "name": "",
          "type": "bool"
        }
      ],
      "stateMutability": "view",
      "type": "function"
    },
    {
      "inputs": [],
      "name": "isEscrowedPrize",
      "outputs": [
        {
          "internalType": "bool",
          "name": "",
          "type": "bool"
        }
      ],
      "stateMutability": "view",
      "type": "function"
    },
    {
      "inputs": [],
      "name": "isExternalCollection",
      "outputs": [
        {
          "internalType": "bool",
          "name": "",
          "type": "bool"
        }
      ],
      "stateMutability": "view",
      "type": "function"
    },
    {
      "inputs": [],
      "name": "isPotPrize",
      "outputs": [
        {
          "internalType": "bool",
          "name": "",
          "type": "bool"
        }
      ],
      "stateMutability": "view",
      "type": "function"
    },
    {
      "inputs": [],
      "name": "isPrized",
      "outputs": [
        {
          "internalType": "bool",
          "name": "",
          "type": "bool"
        }
      ],
      "stateMutability": "view",
      "type": "function"
    },
    {
      "inputs": [],
      "name": "isRefundable",
      "outputs": [
        {
          "internalType": "bool",
          "name": "",
          "type": "bool"
        }
      ],
      "stateMutability": "view",
      "type": "function"
    },
    {
      "inputs": [],
      "name": "maxSlotsPerAddress",
      "outputs": [
        {
          "internalType": "uint256",
          "name": "",
          "type": "uint256"
        }
      ],
      "stateMutability": "view",
      "type": "function"
    },
    {
      "inputs": [],
      "name": "minHolderTokenBalance",
      "outputs": [
        {
          "internalType": "uint256",
          "name": "",
          "type": "uint256"
        }
      ],
      "stateMutability": "view",
      "type": "function"
    },
    {
      "inputs": [],
      "name": "mint",
      "outputs": [],
      "stateMutability": "nonpayable",
      "type": "function"
    },
    {
      "inputs": [],
      "name": "name",
      "outputs": [
        {
          "internalType": "string",
          "name": "",
          "type": "string"
        }
      ],
      "stateMutability": "view",
      "type": "function"
    },
    {
      "inputs": [],
      "name": "nativePrizeAmount",
      "outputs": [
        {
          "internalType": "uint256",
          "name": "",
          "type": "uint256"
        }
      ],
      "stateMutability": "view",
      "type": "function"
    },
    {
      "inputs": [
        {
          "internalType": "address",
          "name": "",
          "type": "address"
        },
        {
          "internalType": "address",
          "name": "",
          "type": "address"
        },
        {
          "internalType": "uint256[]",
          "name": "",
          "type": "uint256[]"
        },
        {
          "internalType": "uint256[]",
          "name": "",
          "type": "uint256[]"
        },
        {
          "internalType": "bytes",
          "name": "",
          "type": "bytes"
        }
      ],
      "name": "onERC1155BatchReceived",
      "outputs": [
        {
          "internalType": "bytes4",
          "name": "",
          "type": "bytes4"
        }
      ],
      "stateMutability": "pure",
      "type": "function"
    },
    {
      "inputs": [
        {
          "internalType": "address",
          "name": "",
          "type": "address"
        },
        {
          "internalType": "address",
          "name": "",
          "type": "address"
        },
        {
          "internalType": "uint256",
          "name": "",
          "type": "uint256"
        },
        {
          "internalType": "uint256",
          "name": "",
          "type": "uint256"
        },
        {
          "internalType": "bytes",
          "name": "",
          "type": "bytes"
        }
      ],
      "name": "onERC1155Received",
      "outputs": [
        {
          "internalType": "bytes4",
          "name": "",
          "type": "bytes4"
        }
      ],
      "stateMutability": "pure",
      "type": "function"
    },
    {
      "inputs": [
        {
          "internalType": "address",
          "name": "",
          "type": "address"
        },
        {
          "internalType": "address",
          "name": "",
          "type": "address"
        },
        {
          "internalType": "uint256",
          "name": "",
          "type": "uint256"
        },
        {
          "internalType": "bytes",
          "name": "",
          "type": "bytes"
        }
      ],
      "name": "onERC721Received",
      "outputs": [
        {
          "internalType": "bytes4",
          "name": "",
          "type": "bytes4"
        }
      ],
      "stateMutability": "pure",
      "type": "function"
    },
    {
      "inputs": [],
      "name": "owner",
      "outputs": [
        {
          "internalType": "address",
          "name": "",
          "type": "address"
        }
      ],
      "stateMutability": "view",
      "type": "function"
    },
    {
      "inputs": [
        {
          "internalType": "uint256",
          "name": "",
          "type": "uint256"
        }
      ],
      "name": "participants",
      "outputs": [
        {
          "internalType": "address",
          "name": "",
          "type": "address"
        }
      ],
      "stateMutability": "view",
      "type": "function"
    },
    {
      "inputs": [],
      "name": "paused",
      "outputs": [
        {
          "internalType": "bool",
          "name": "",
          "type": "bool"
        }
      ],
      "stateMutability": "view",
      "type": "function"
    },
    {
      "inputs": [],
      "name": "pendingProtocolFee",
      "outputs": [
        {
          "internalType": "uint256",
          "name": "",
          "type": "uint256"
        }
      ],
      "stateMutability": "view",
      "type": "function"
    },
    {
      "inputs": [],
      "name": "poolData",
      "outputs": [
        {
          "internalType": "string",
          "name": "name",
          "type": "string"
        },
        {
          "internalType": "uint256",
          "name": "winnersCount",
          "type": "uint256"
        },
        {
          "internalType": "uint256",
          "name": "maxSlotsPerAddress",
          "type": "uint256"
        },
        {
          "internalType": "uint256",
          "name": "slotLimit",
          "type": "uint256"
        },
        {
          "internalType": "address",
          "name": "revenueRecipient",
          "type": "address"
        },
        {
          "internalType": "bool",
          "name": "isCollabPool",
          "type": "bool"
        },
        {
          "internalType": "bool",
          "name": "usesCustomFee",
          "type": "bool"
        },
        {
          "internalType": "bool",
          "name": "isExternalCollection",
          "type": "bool"
        },
        {
          "internalType": "bool",
          "name": "isRefundable",
          "type": "bool"
        },
        {
          "internalType": "bool",
          "name": "erc721EscrowClaimed",
          "type": "bool"
        },
        {
          "internalType": "bool",
          "name": "isEscrowedPrize",
          "type": "bool"
        },
        {
          "internalType": "bool",
          "name": "wasDeletedForFullRefund",
          "type": "bool"
        },
        {
          "internalType": "bool",
          "name": "protocolFeeCalculated",
          "type": "bool"
        },
        {
          "internalType": "bool",
          "name": "randomRequested",
          "type": "bool"
        },
        {
          "internalType": "bool",
          "name": "randomnessUsed",
          "type": "bool"
        },
        {
          "internalType": "bool",
          "name": "socialEngagementRequired",
          "type": "bool"
        },
        {
          "internalType": "bool",
          "name": "hasCreatorFeeDiscount",
          "type": "bool"
        },
        {
          "internalType": "bool",
          "name": "isPotPrize",
          "type": "bool"
        }
      ],
      "stateMutability": "view",
      "type": "function"
    },
    {
      "inputs": [],
      "name": "poolSubscriptionId",
      "outputs": [
        {
          "internalType": "uint256",
          "name": "",
          "type": "uint256"
        }
      ],
      "stateMutability": "view",
      "type": "function"
    },
    {
      "inputs": [
        {
          "internalType": "address",
          "name": "participant",
          "type": "address"
        }
      ],
      "name": "prizeClaimed",
      "outputs": [
        {
          "internalType": "uint256",
          "name": "",
          "type": "uint256"
        }
      ],
      "stateMutability": "view",
      "type": "function"
    },
    {
      "inputs": [],
      "name": "prizeCollection",
      "outputs": [
        {
          "internalType": "address",
          "name": "",
          "type": "address"
        }
      ],
      "stateMutability": "view",
      "type": "function"
    },
    {
      "inputs": [],
      "name": "prizeData",
      "outputs": [
        {
          "internalType": "enum PrizeTypes.Standard",
          "name": "standard",
          "type": "uint8"
        },
        {
          "internalType": "address",
          "name": "prizeCollection",
          "type": "address"
        },
        {
          "internalType": "uint256",
          "name": "prizeTokenId",
          "type": "uint256"
        },
        {
          "internalType": "uint256",
          "name": "amountPerWinner",
          "type": "uint256"
        },
        {
          "internalType": "address",
          "name": "erc20PrizeToken",
          "type": "address"
        },
        {
          "internalType": "uint256",
          "name": "erc20PrizeAmount",
          "type": "uint256"
        },
        {
          "internalType": "uint256",
          "name": "nativePrizeAmount",
          "type": "uint256"
        },
        {
          "internalType": "uint256",
          "name": "prizesClaimedCount",
          "type": "uint256"
        }
      ],
      "stateMutability": "view",
      "type": "function"
    },
    {
      "inputs": [],
      "name": "prizeTokenId",
      "outputs": [
        {
          "internalType": "uint256",
          "name": "",
          "type": "uint256"
        }
      ],
      "stateMutability": "view",
      "type": "function"
    },
    {
      "inputs": [],
      "name": "prizesClaimedCount",
      "outputs": [
        {
          "internalType": "uint256",
          "name": "",
          "type": "uint256"
        }
      ],
      "stateMutability": "view",
      "type": "function"
    },
    {
      "inputs": [],
      "name": "protocolFeeCalculated",
      "outputs": [
        {
          "internalType": "bool",
          "name": "",
          "type": "bool"
        }
      ],
      "stateMutability": "view",
      "type": "function"
    },
    {
      "inputs": [],
      "name": "protocolFeePercentage",
      "outputs": [
        {
          "internalType": "uint256",
          "name": "",
          "type": "uint256"
        }
      ],
      "stateMutability": "view",
      "type": "function"
    },
    {
      "inputs": [
        {
          "internalType": "uint256",
          "name": "quantity",
          "type": "uint256"
        },
        {
          "internalType": "uint256",
          "name": "_deadline",
          "type": "uint256"
        },
        {
          "internalType": "bytes",
          "name": "_signature",
          "type": "bytes"
        },
        {
          "internalType": "uint256[]",
          "name": "_tokenIds",
          "type": "uint256[]"
        }
      ],
      "name": "purchaseSlots",
      "outputs": [],
      "stateMutability": "payable",
      "type": "function"
    },
    {
      "inputs": [],
      "name": "randomRequested",
      "outputs": [
        {
          "internalType": "bool",
          "name": "",
          "type": "bool"
        }
      ],
      "stateMutability": "view",
      "type": "function"
    },
    {
      "inputs": [],
      "name": "randomSeed",
      "outputs": [
        {
          "internalType": "uint256",
          "name": "",
          "type": "uint256"
        }
      ],
      "stateMutability": "view",
      "type": "function"
    },
    {
      "inputs": [],
      "name": "randomnessUsed",
      "outputs": [
        {
          "internalType": "bool",
          "name": "",
          "type": "bool"
        }
      ],
      "stateMutability": "view",
      "type": "function"
    },
    {
      "inputs": [
        {
          "internalType": "uint256",
          "name": "requestId",
          "type": "uint256"
        },
        {
          "internalType": "uint256[]",
          "name": "randomWords",
          "type": "uint256[]"
        }
      ],
      "name": "rawFulfillRandomWords",
      "outputs": [],
      "stateMutability": "nonpayable",
      "type": "function"
    },
    {
      "inputs": [
        {
          "internalType": "address",
          "name": "",
          "type": "address"
        }
      ],
      "name": "refundableAmount",
      "outputs": [
        {
          "internalType": "uint256",
          "name": "",
          "type": "uint256"
        }
      ],
      "stateMutability": "view",
      "type": "function"
    },
    {
      "inputs": [
        {
          "internalType": "address",
          "name": "",
          "type": "address"
        }
      ],
      "name": "refundedNonWinningSlots",
      "outputs": [
        {
          "internalType": "uint256",
          "name": "",
          "type": "uint256"
        }
      ],
      "stateMutability": "view",
      "type": "function"
    },
    {
      "inputs": [],
      "name": "renounceOwnership",
      "outputs": [],
      "stateMutability": "nonpayable",
      "type": "function"
    },
    {
      "inputs": [],
      "name": "requestRandomness",
      "outputs": [],
      "stateMutability": "nonpayable",
      "type": "function"
    },
    {
      "inputs": [],
      "name": "revenueData",
      "outputs": [
        {
          "internalType": "uint256",
          "name": "protocolFeePercentage",
          "type": "uint256"
        },
        {
          "internalType": "uint256",
          "name": "creationFeePercentage",
          "type": "uint256"
        },
        {
          "internalType": "uint256",
          "name": "totalCreatorRevenue",
          "type": "uint256"
        },
        {
          "internalType": "uint256",
          "name": "totalRefundableAmount",
          "type": "uint256"
        },
        {
          "internalType": "uint256",
          "name": "totalGlobalFeeRevenue",
          "type": "uint256"
        },
        {
          "internalType": "uint256",
          "name": "pendingProtocolFee",
          "type": "uint256"
        }
      ],
      "stateMutability": "view",
      "type": "function"
    },
    {
      "inputs": [],
      "name": "revenueRecipient",
      "outputs": [
        {
          "internalType": "address",
          "name": "",
          "type": "address"
        }
      ],
      "stateMutability": "view",
      "type": "function"
    },
    {
      "inputs": [],
      "name": "s_vrf_lastRequestId",
      "outputs": [
        {
          "internalType": "uint256",
          "name": "",
          "type": "uint256"
        }
      ],
      "stateMutability": "view",
      "type": "function"
    },
    {
      "inputs": [],
      "name": "shuffleStartIndex",
      "outputs": [
        {
          "internalType": "uint256",
          "name": "",
          "type": "uint256"
        }
      ],
      "stateMutability": "view",
      "type": "function"
    },
    {
      "inputs": [],
      "name": "slotFee",
      "outputs": [
        {
          "internalType": "uint256",
          "name": "",
          "type": "uint256"
        }
      ],
      "stateMutability": "view",
      "type": "function"
    },
    {
      "inputs": [],
      "name": "slotLimit",
      "outputs": [
        {
          "internalType": "uint256",
          "name": "",
          "type": "uint256"
        }
      ],
      "stateMutability": "view",
      "type": "function"
    },
    {
      "inputs": [
        {
          "internalType": "address",
          "name": "",
          "type": "address"
        }
      ],
      "name": "slotsPurchased",
      "outputs": [
        {
          "internalType": "uint256",
          "name": "",
          "type": "uint256"
        }
      ],
      "stateMutability": "view",
      "type": "function"
    },
    {
      "inputs": [],
      "name": "socialEngagementRequired",
      "outputs": [
        {
          "internalType": "bool",
          "name": "",
          "type": "bool"
        }
      ],
      "stateMutability": "view",
      "type": "function"
    },
    {
      "inputs": [],
      "name": "standard",
      "outputs": [
        {
          "internalType": "enum PrizeTypes.Standard",
          "name": "",
          "type": "uint8"
        }
      ],
      "stateMutability": "view",
      "type": "function"
    },
    {
      "inputs": [],
      "name": "startTime",
      "outputs": [
        {
          "internalType": "uint128",
          "name": "",
          "type": "uint128"
        }
      ],
      "stateMutability": "view",
      "type": "function"
    },
    {
      "inputs": [],
      "name": "state",
      "outputs": [
        {
          "internalType": "enum IPool.PoolState",
          "name": "",
          "type": "uint8"
        }
      ],
      "stateMutability": "view",
      "type": "function"
    },
    {
      "inputs": [
        {
          "internalType": "bytes4",
          "name": "interfaceId",
          "type": "bytes4"
        }
      ],
      "name": "supportsInterface",
      "outputs": [
        {
          "internalType": "bool",
          "name": "",
          "type": "bool"
        }
      ],
      "stateMutability": "view",
      "type": "function"
    },
    {
      "inputs": [
        {
          "internalType": "uint256",
          "name": "",
          "type": "uint256"
        }
      ],
      "name": "tokenIdClaimedBy",
      "outputs": [
        {
          "internalType": "address",
          "name": "",
          "type": "address"
        }
      ],
      "stateMutability": "view",
      "type": "function"
    },
    {
      "inputs": [],
      "name": "totalCreatorRevenue",
      "outputs": [
        {
          "internalType": "uint256",
          "name": "",
          "type": "uint256"
        }
      ],
      "stateMutability": "view",
      "type": "function"
    },
    {
      "inputs": [],
      "name": "totalGlobalFeeRevenue",
      "outputs": [
        {
          "internalType": "uint256",
          "name": "",
          "type": "uint256"
        }
      ],
      "stateMutability": "view",
      "type": "function"
    },
    {
      "inputs": [],
      "name": "totalRefundableAmount",
      "outputs": [
        {
          "internalType": "uint256",
          "name": "",
          "type": "uint256"
        }
      ],
      "stateMutability": "view",
      "type": "function"
    },
    {
      "inputs": [
        {
          "internalType": "address",
          "name": "newOwner",
          "type": "address"
        }
      ],
      "name": "transferOwnership",
      "outputs": [],
      "stateMutability": "nonpayable",
      "type": "function"
    },
    {
      "inputs": [],
      "name": "usesCustomFee",
      "outputs": [
        {
          "internalType": "bool",
          "name": "",
          "type": "bool"
        }
      ],
      "stateMutability": "view",
      "type": "function"
    },
    {
      "inputs": [],
      "name": "wasDeletedForFullRefund",
      "outputs": [
        {
          "internalType": "bool",
          "name": "",
          "type": "bool"
        }
      ],
      "stateMutability": "view",
      "type": "function"
    },
    {
      "inputs": [
        {
          "internalType": "uint256",
          "name": "",
          "type": "uint256"
        }
      ],
      "name": "winners",
      "outputs": [
        {
          "internalType": "address",
          "name": "",
          "type": "address"
        }
      ],
      "stateMutability": "view",
      "type": "function"
    },
    {
      "inputs": [],
      "name": "winnersCount",
      "outputs": [
        {
          "internalType": "uint256",
          "name": "",
          "type": "uint256"
        }
      ],
      "stateMutability": "view",
      "type": "function"
    },
    {
      "inputs": [],
      "name": "winnersSelected",
      "outputs": [
        {
          "internalType": "uint256",
          "name": "",
          "type": "uint256"
        }
      ],
      "stateMutability": "view",
      "type": "function"
    },
    {
      "inputs": [
        {
          "internalType": "address",
          "name": "",
          "type": "address"
        }
      ],
      "name": "winsPerAddress",
      "outputs": [
        {
          "internalType": "uint256",
          "name": "",
          "type": "uint256"
        }
      ],
      "stateMutability": "view",
      "type": "function"
    },
    {
      "inputs": [],
      "name": "withdrawCreatorRevenue",
      "outputs": [],
      "stateMutability": "nonpayable",
      "type": "function"
    },
    {
      "inputs": [],
      "name": "withdrawProtocolRevenue",
      "outputs": [],
      "stateMutability": "nonpayable",
      "type": "function"
    }
  ],
  "bytecode": "0x60a034620000bb57601f6200605538819003918201601f19168301916001600160401b03831184841017620000c057808492602094604052833981010312620000bb57516001600160a01b03908181168103620000bb576000543360018060a01b0319821617600055604051923391167f8be0079c531659141344cd1fd0a4f28419497f9722a3daafe3b4186f6b6457e0600080a36001805560ff1960025416600255608052615f7e9081620000d78239608051816110b70152f35b600080fd5b634e487b7160e01b600052604160045260246000fdfe608080604052600436101561001357600080fd5b60009060e0908235821c90816301ffc9a7146137c65750806302d05d3f1461379d5780630631c5c21461377f57806306f130561461376157806306fdde031461372d5780630852197414612b275780630aa00e701461370f5780630b747d91146136f15780630b78824b146136d35780630e4fa158146136ad5780630fb5a6b41461368c5780631249c58b14613244578063125d885a14612cbd578063128f4ba414612c9f578063150b7a0214612c485780631ae25dd014612bf95780631fe543e314612b6057806325444fa414612b275780632c1fecfe14612b015780633197cbb614612ae6578063321679fa14612ac8578063327bb1ad1461101457806335c1d34914612a845780633b26314d14612a5b57806340021434146125d457806341a35b34146125a657806342b72afa1461256d57806344a909861461254f57806348a3a45014612529578063497138111461250b5780634e3ff460146124cc5780634f7f0fc01461248d57806355c00fcb1461246a5780635755248e1461244c5780635a3b7e42146124265780635c975abb146124035780635f369a3214611a2057806366805de514611a07578063677375c3146119e9578063683d1936146119c3578063696917ba1461199d5780636e61a160146119775780636e8b38db1461194a57806370740ac9146118fc578063715018a6146118a2578063740e21981461187657806378e979251461184f578063813e88b914611831578063837d11281461180b57806387213c35146117e55780638778d82c146117bc57806387dc972714611037578063888dc19814611019578063898b36db146110145780638bc5328514610ff65780638bfbbcbe14610fdd5780638d7fe47814610fb65780638da5cb5b14610f8f5780638e50e50914610f7157806394f5c9dc14610f295780639ed5c1cc14610f00578063a0dca61714610ed5578063a177ec0914610eaa578063a2fb117514610e4e578063a67d0e6c14610e30578063ae4b82c114610e06578063aebc455014610dd9578063af78ed0a14610dbb578063b0b606c014610d88578063b15825ae14610d62578063b5545a3c14610d33578063b5ad841214610b79578063bc197c8114610aed578063c19d93fb14610aaa578063c2e784bd14610a8c578063c3fa0e3b14610a6e578063c58fe16214610a50578063cabfaa1814610a32578063cc7d49ec14610a0c578063d0d11ae8146109ee578063d17d1359146109b5578063d447e9bc1461095f578063d91043f214610997578063dc8a55c21461095f578063e511a11b14610926578063e620decf14610900578063e6f12cf7146108e2578063f23a6e611461088b578063f2fde38b146107fd578063f8413b0714610690578063fb687df414610663578063fd22b17c146105ba578063fd75a1f1146105445763fee151ae1461042d57600080fd5b3461054057816003193601126105405761047a906104496139e5565b90600a5490600b5490600c5490600d54918260ff92839283600e5416966040519a8b9a610240808d528c019061381b565b9860208b015260408a0152606089015260018060a01b0382166080890152828260a01c16151560a0890152828260a81c16151560c0890152828260b01c16151581890152828260b81c161515610100890152828260c01c161515610120890152828260c81c161515610140890152828260d01c161515610160890152828260d81c1615156101808901521c1615156101a0860152808260e81c1615156101c08601528160f01c1615156101e085015260f81c151561020084015215156102208301520390f35b5080fd5b5034610540578160031936011261054057600f546010546011546012546013546014546015546040516101009890979196909592946001600160a01b0390811693926105938a60ff83166138e4565b60081c16602089015260408801526060870152608086015260a085015260c0840152820152f35b823461066057806003193601126106605780546040516336b87bd760e11b815233600482015290602090829060249082906001600160a01b03165afa908115610655578291610627575b5015610615576106126157ee565b80f35b6040516327e1f1e560e01b8152600490fd5b610648915060203d811161064e575b61064081836139c4565b8101906142cd565b82610604565b503d610636565b6040513d84823e3d90fd5b80fd5b8234610660578060031936011261066057600f5460405160089190911c6001600160a01b03168152602090f35b50346105405781600319360112610540576106a9613bef565b4210156107f0575b6106b9613bef565b4210610540576007549060ff8260a81c1660088110156107dc57600281149081156107d1575b50806107c4575b15610749576016546001600160a01b0390811661077a57602854600a5411610776575b602c54159283610762575b163314801561074d575b1561074957600d54901c60ff166105405761073c575b610612613f86565b6107446159a7565b610734565b8280fd5b5033835260266020526040832054151561071e565b61076a613bef565b421015610714575b8480fd5b8380fd5b600a546032810290808204603214901517156107b0576064900480156107a8575b6028541015610709578380fd5b50600161079b565b634e487b7160e01b85526011600452602485fd5b50602c54600a54116106e6565b6003915014386106df565b634e487b7160e01b84526021600452602484fd5b6107f861536f565b6106b1565b82346106605760203660031901126106605761081761385b565b61081f613a91565b6001600160a01b038116156108375761061290613ae9565b60405162461bcd60e51b815260206004820152602660248201527f4f776e61626c653a206e6577206f776e657220697320746865207a65726f206160448201526564647265737360d01b6064820152608490fd5b82346106605760a0366003190112610660576108a561385b565b506108ae613871565b506084356001600160401b038111610540576108ce9036906004016138b7565b505060405163f23a6e6160e01b8152602090f35b82346106605780600319360112610660576020601d54604051908152f35b8234610660578060031936011261066057602060ff600d5460d81c166040519015158152f35b8234610660576020366003190112610660576020906040906001600160a01b0361094e61385b565b168152602383522054604051908152f35b8234610660576020366003190112610660576020906040906001600160a01b0361098761385b565b1681528280522054604051908152f35b82346106605780600319360112610660576020601a54604051908152f35b8234610660576020366003190112610660576020906040906001600160a01b036109dd61385b565b168152601f83522054604051908152f35b82346106605780600319360112610660576020601454604051908152f35b8234610660578060031936011261066057602060ff600d5460d01c166040519015158152f35b82346106605780600319360112610660576020602854604051908152f35b82346106605780600319360112610660576020600b54604051908152f35b82346106605780600319360112610660576020601e54604051908152f35b82346106605780600319360112610660576020600454604051908152f35b823461066057806003193601126106605760ff60075460a81c16604051906008811015610ad957602092508152f35b634e487b7160e01b83526021600452602483fd5b82346106605760a036600319011261066057610b0761385b565b50610b10613871565b506001600160401b0360443581811161074957610b31903690600401613887565b505060643581811161074957610b4b903690600401613887565b505060843590811161054057610b659036906004016138b7565b505060405163bc197c8160e01b8152602090f35b8234610660578060031936011261066057610b92613c88565b60ff600e541661066057600d546001600160a01b0390818116338190036107765760ff60075460a81c166008811015610d1f579081600586931461074957600781146107495760ff8460b01c16600014610cff57600603610540575b601b54908115610749578280928192610c24612710610c1c610c3099601a549060f81c610cf7575b85613c24565b048093613f79565b96879284601b55615a33565b5af1610c3a613db8565b501561074957816020917fb6088881964c50b50eaf51dd7335a2370625af0d5fecc5f4599a6d00620561fa83602495600d541692604051908152a2610c7d615bcf565b83541660405192838092630425172560e31b82523060048301525afa908115610655578291610cc1575b50610cb4575b6001805580f35b610cbc61594f565b610cad565b90506020813d8211610cef575b81610cdb602093836139c4565b81010312610cea575182610ca7565b600080fd5b3d9150610cce565b60011c610c16565b60048114908115610d14575b50610bee575080fd5b600691501486610d0b565b634e487b7160e01b85526021600452602485fd5b8234610660578060031936011261066057610d4c613c88565b610d5533614a39565b1561066057610cad615603565b8234610660578060031936011261066057602060ff600d5460b01c166040519015158152f35b823461066057602036600319011261066057602090600435815260248252604060018060a01b0391205416604051908152f35b82346106605780600319360112610660576020601b54604051908152f35b823461066057806003193601126106605760025460405160089190911c6001600160a01b03168152602090f35b82346106605760203660031901126106605760406020916004358152602783522054604051908152f35b82346106605780600319360112610660576020600554604051908152f35b8234610660576020366003190112610660576004356029548110156105405760296000527fcb7c14ce178f56e2e8d86ab33ebc0ae081ba8556a00cd122038841867181caac01546040516001600160a01b039091168152602090f35b8234610660578060031936011261066057602060ff60165460a01c16610ed360405180926138e4565bf35b82346106605780600319360112610660576007546001600160a01b0316330361066057610612615bcf565b82346106605780600319360112610660576012546040516001600160a01b039091168152602090f35b823461066057806003193601126106605760c0601954601a54601b54601c54601d5491601e5493604051958652602086015260408501526060840152608083015260a0820152f35b82346106605780600319360112610660576020601954604051908152f35b8234610660578060031936011261066057546040516001600160a01b039091168152602090f35b509034610660578060031936011261066057602060ff83600d54901c166040519015158152f35b823461066057806003193601126106605761061261515a565b82346106605780600319360112610660576020602c54604051908152f35b613907565b82346106605780600319360112610660576020601554604051908152f35b8260031961026036820112610540576001600160401b0360043511610540576101c060043560040191600435360301126105405761010036602319011261054057608036610123190112610540576101a435908115158203610cea576101c4356001600160a01b0381169003610cea5761024435908115158203610cea577f00000000000000000000000000000000000000000000000000000000000000006001600160a01b031633036107765783546001600160a01b03166107765761110561110082613b73565b613ae9565b600780546001600160a01b036101c43581166001600160a01b03198316179092559161113090613b73565b60405163ec644ddd60e01b8152911660a082600481845afa918215611776578692611781575b50602060249160405192838092630425172560e31b82523060048301525afa908115611776578691611744575b5060035560028054610100600160a81b03191660089290921b610100600160a81b0316919091179055610224356005556006805485166101e4356001600160801b0316176102043560801b6fffffffffffffffffffffffffffffffff191617905590151560a01b60ff60a01b166001600160b01b03199091166101c4356001600160a01b03161717600755600435604481013590360360221901811215610749576001600160401b0360048281350101351161074957600481813501013536036024826004350101136107495761125b60095461395c565b601f81116116d4575b5082601f60048381350101351160011461163a5783906004838135010135611628575b50600482813501013560011b91600460001991813501013560031b1c1916176009555b60043560a4810135600a556084810135600b556064810135600c556024016001600160a01b036112d982613b73565b161561161e576112e890613b73565b600d549160ff60a01b6112ff60043560c401613be2565b151560a01b169060ff60a81b61131960043560e401613be2565b151560a81b1660ff60b01b61133360043561010401613be2565b151560b01b16906001600160f81b031961135260043561012401613be2565b151560f81b166001600160a01b03861666ffffffffffffff60b81b88161785178217831760ff60f01b85151560f01b16178117600d559361139861014460043501613be2565b151560ff8019600e5416911617600e55602435600481101561161a57600f5460ff610100600160a81b036113ca613b30565b60081b169216906affffffffffffffffffffff60a81b161717600f5560643560105560843560115560018060a01b03611401613b46565b166bffffffffffffffffffffffff60a01b601254161760125560c43560135560e43560145560018060a01b03611435613b5c565b166115c4575b600435610164810135601955610184810135601a556101a401359660e435156115035750505050505050610224350361066057600d805460ff60c81b1916600160c81b1790555b60ff60075460a01c16806114f4575b806114e7575b156114c157600a54600d805460ff60b81b1916600190921160b81b60ff60b81b1691909117905580f35b600d5460ff8160a81c16156114d4575080f35b60ff60b81b1916600160b81b17600d5580f35b5060ff600e541615611497565b5060ff600d5460a81c16611491565b6001600160a01b03611513613b46565b16156115415750505050505050610224350361066057600d805460ff60c81b1916600160c81b179055611482565b909192939495965060018060a01b03611558613b30565b1661156a575b50505050505050611482565b61010435801515809103610cea5760ff60c81b60c89190911b166001600160a01b039790971666ffffffff00ffff60b81b919091161717171760ff60f01b91151560f01b91909116171717600d558180808080808061155e565b6001600160a01b036115d4613b5c565b1660165490610144356004811015611616576001600160a81b03199092161760a09190911b60ff60a01b1617601655610164356017556101843560185561143b565b8a80fd5b8880fd5b506101c4356112e8565b60249150826004350101013584611287565b60098452600080516020615f2983398151915290845b6004803585010135601f191681106116b55750600192600492909183358301840135601f1981161061168f575b50508135010135811b016009556112aa565b602460001960f88686813501013560031b161c199184863501010135169055858061167d565b9091602060018192602486886004350101013581550193019101611650565b60098452601f600480358401013590810160051c600080516020615f29833981519152019060201161172f575b601f820160051c600080516020615f298339815191520181106117245750611264565b848155600101611701565b50600080516020615f29833981519152611701565b90506020813d60201161176e575b8161175f602093836139c4565b81010312610cea575186611183565b3d9150611752565b6040513d88823e3d90fd5b60249192506117a960209160a03d60a0116117b5575b6117a181836139c4565b810190613b9b565b50505050929150611156565b503d611797565b82346106605780600319360112610660576016546040516001600160a01b039091168152602090f35b8234610660578060031936011261066057602060ff600d5460f01c166040519015158152f35b8234610660578060031936011261066057602060ff600d5460a81c166040519015158152f35b82346106605780600319360112610660576020601154604051908152f35b823461066057806003193601126106605760206001600160801b0360065416604051908152f35b823461066057602036600319011261066057602061189a61189561385b565b61478c565b604051908152f35b82346106605780600319360112610660576118bb613a91565b600080546001600160a01b0319811682556001600160a01b03167f8be0079c531659141344cd1fd0a4f28419497f9722a3daafe3b4186f6b6457e08280a380f35b8234610660578060031936011261066057611915613c88565b60ff60075460a81c1660088110156119365760040361066057610cad6142e5565b634e487b7160e01b82526021600452602482fd5b82346106605760203660031901126106605761196461385b565b9030330361066057602061189a83614a39565b8234610660578060031936011261066057602060ff600d5460c01c166040519015158152f35b8234610660578060031936011261066057602060ff600d5460c81c166040519015158152f35b8234610660578060031936011261066057602060ff60075460a01c166040519015158152f35b82346106605780600319360112610660576020601c54604051908152f35b8234610660578060031936011261066057610612614f61565b826080366003190112610660576001600160401b0360443581811161074957611a4d9036906004016138b7565b9160643590811161077657611a66903690600401613887565b929091611a71613c88565b60075460ff90818160a81c16600881101561239b57156123af575b5060075491818360a81c1695600887101561239b576001809703612389573315612377576004359586156123655760055480156123535787611acd91613c24565b3403612341576001600160801b0360065416421061232f57611aed613bef565b42101561231d57602894611b02888754613c37565b600c541061230b57338a5260209660268852611b228960408d2054613c37565b600b54106122f957858260a01c1615806122c6575b6122b4578a54604051638da5cb5b60e01b81526001600160a01b039691871693908d908b81600481895afa9081156106555789929161227c575b5016331461226a578616331461225957888c9388600d5460f01c16808091612244575b15612160575060049293945060405192838092636b90bda960e01b82525afa80156121555786918d9161211d575b501690811561210b578b92823b1561077657611bfc928492836040518096819582946324fa7e3f60e21b8452602435303360048701613c44565b03925af18015610655576120f7575b50503389526025865260408920805460ff1916891790555b6016918254858582169182611d34575b505050505050503386526026835260408620848154019055855b848110611cd95750907ffd1903a7f9f31de6cf38a88eda98ae029aeba3b2ec48a599d7c0d900f0f335cb9291600d5460a81c1615600014611cc557611c9434601d54613c37565b601d555b54600c5414611cb0575b6040519283523392a2805580f35b611cb86159a7565b611cc0613f86565b611ca2565b611cd134601b54613c37565b601b55611c98565b825490600160401b821015611d1e57611d18611cfa83898095018755613925565b81546001600160a01b0360039290921b91821b19163390911b179055565b01611c4d565b634e487b7160e01b600052604160045260246000fd5b60a01c1660048110156120e357889080611fde575050508015611fda57889060178054838114600014611e3a5750501061161a57858360249235935416604051928380926331a9108f60e11b82528660048301525afa908115611e2f578991611dfa575b508233911603611df65787526024845260408720908154908116801580918115611dec575b501561161a57611dd7575b50505b86808080808581611c33565b6001600160a01b031916331790558680611dc8565b905033148a611dbd565b8780fd5b90508581813d8311611e28575b611e1181836139c4565b8101031261161a57611e2290613b87565b89611d98565b503d611e07565b6040513d8b823e3d90fd5b909193928111600014611fd657808410611fd657908a95949392918c5b818110611f685750508b955b611e73575b505050505050611dcb565b8054861015611f635788611e888785856146ac565b358d87875416604051938480926331a9108f60e11b825285600483015260249687915afa918215611f575791611f22575b508733911603611f1e578d52895260408c2080549686881691821580938115611f14575b5015611f10578d98611ef593611efb575b50506142be565b95611e63565b6001600160a01b031916331790558e80611eee565b8e80fd5b9050331438611edd565b8d80fd5b90508b81813d8311611f50575b611f3981836139c4565b81010312611f1057611f4a90613b87565b8f611eb9565b503d611f2f565b604051903d90823e3d90fd5b611e68565b909192939495968101808211611fc2575b828110611f975750611f8a906142be565b908b969594939291611e57565b611fa28287876146ac565b35611fae8288886146ac565b3514611f1e57611fbd906142be565b611f79565b634e487b7160e01b8e52601160045260248efd5b8b80fd5b8980fd5b9350935093505087811460001461206c5750601854604051627eeac760e11b8152336004820152602481019190915291829060449082905afa908115612061578791612034575b506017541115611dcb575b8580fd5b90508381813d831161205a575b61204b81836139c4565b81010312610cea575187612025565b503d612041565b6040513d89823e3d90fd5b60021461207b575b5050611dcb565b6040516370a0823160e01b815233600482015291829060249082905afa9081156120615787916120b6575b5060175411612030578683612074565b90508381813d83116120dc575b6120cd81836139c4565b81010312610cea5751876120a6565b503d6120c3565b634e487b7160e01b8c52602160045260248cfd5b61210090613996565b61161a57888a611c0b565b6040516343361aaf60e01b8152600490fd5b8092508a8092503d831161214e575b61213681836139c4565b81010312611fd6576121488691613b87565b8d611bc2565b503d61212c565b6040513d8e823e3d90fd5b91909115612173575b5050505050611c23565b6040516344c9e83d60e01b815291829060049082905afa80156122395787918591612201575b501691826121a8575b89612169565b823b15610776576121d79284928360405180968195829463d3b1809b60e01b8452602435303360048701613c44565b03925af18015610655576121ed575b80806121a2565b6121f690613996565b61161a57888a6121e6565b8092508b8092503d8311612232575b61221a81836139c4565b810103126107765761222c8791613b87565b8e612199565b503d612210565b6040513d86823e3d90fd5b50338652602583528960408720541615611b94565b60405162ca6a8360e51b8152600490fd5b604051635f2a002d60e11b8152600490fd5b8092508c8092503d83116122ad575b61229581836139c4565b81010312611f1e576122a78891613b87565b8f611b71565b503d61228b565b604051631274fa9d60e31b8152600490fd5b5085600d5460a81c1680156122ef575b80611b375750338b526026885260408b20541515611b37565b50898914156122d6565b604051637145fa7b60e01b8152600490fd5b6040516302edeeb760e31b8152600490fd5b60405163fd2a413d60e01b8152600490fd5b604051633d8c21b360e01b8152600490fd5b60405163569e8c1160e01b8152600490fd5b60405163d2100d7360e01b8152600490fd5b60405163f4f5b73360e01b8152600490fd5b60405163d92e233d60e01b8152600490fd5b6040516338c0a90160e11b8152600490fd5b634e487b7160e01b88526021600452602488fd5b6001600160801b03600654164210611a8c5760ff60a81b1916600160a81b176007556040514281527f0fc99ba436efa6fb2f50b2287984eebe37b2314a2bd81ea576ef9d4be0bd6a6690602090a186611a8c565b8234610660578060031936011261066057602060ff600254166040519015158152f35b8234610660578060031936011261066057602060ff600f5416610ed360405180926138e4565b82346106605780600319360112610660576020601754604051908152f35b8234610660578060031936011261066057602060ff600e54166040519015158152f35b82346106605760203660031901126106605760209060ff906040906001600160a01b036124b861385b565b168152602284522054166040519015158152f35b82346106605760203660031901126106605760209060ff906040906001600160a01b036124f761385b565b168152602584522054166040519015158152f35b82346106605780600319360112610660576020600a54604051908152f35b8234610660578060031936011261066057602060ff600d5460e81c166040519015158152f35b82346106605780600319360112610660576020602d54604051908152f35b8234610660576020366003190112610660576020906040906001600160a01b0361259561385b565b168152602183522054604051908152f35b8234610660578060031936011261066057338152602660205260408120548015610540576106129033615aee565b8234610660576020806003193601126105405760043530330361074957602e5483526027825280604084205561260b602e546142be565b602e55602d54602b54906028549061262281613cfe565b9361263060405195866139c4565b81855261263c82613cfe565b8587019490601f1901368637875b83811061295557505050855b8181106128c15750600d9361268885549260ff60e01b198416875561267d81602b54613c37565b602b55602c54613c37565b9384602c55604051918783019088845251809152604083019190895b898282106128a4575050505090807f32a1b5731a757f192a06ca973715ca4dbc42c2d15323cabaa74e0a2d5dc088e4920390a16016546001600160a01b0393908416158015906128995783821080159061288d575b15612883576007805460ff60a81b1916600160aa1b179081905560ff949060a01c851680612877575b8061286b575b8061285e575b6127d6575b5050505080600e5416809181926127c7575b5061278e575b15612757575b50505080f35b7f25f963830ed48b61c3caeb9b447fb429f8b54ccb2d5a244191bff346ed5fa34291541691601b54604051908152a2818080612751565b6127ae601b546127106127a360195483613c24565b049081601e55613f79565b601b55825460ff60d81b1916600160d81b17835561274b565b9050835460d81c161586612745565b6127f8926127ef9280612853575b156128495790613f79565b60055490613c24565b61271061280760195483613c24565b046128128183613f79565b91601b5490808210611fda5761282791613f79565b601b55601e55601c5561ffff60d81b1916600160d81b17835585808080612733565b50600a5490613f79565b50600a5481106127e4565b50848460d81c161561272e565b50848460b81c16612728565b50848460a81c16612722565b5050505050505080f35b50600a548210156126f9565b600a548210156126f9565b83516001600160a01b0316855293840193909201916001016126a4565b6001600160a01b036128d38287613d15565b5116906029918254600160401b811015611d1e576001810180855581101561293f5761293a936000527fcb7c14ce178f56e2e8d86ab33ebc0ae081ba8556a00cd122038841867181caac01906bffffffffffffffffffffffff60a01b8254161790556142be565b612656565b634e487b7160e01b600052603260045260246000fd5b612968816129638488613f79565b613f79565b6040518981019085825283604082015260408152612985816139a9565b519020906129938385613c37565b918115612a47576129af8493612a429593612a16930690613c37565b6129f76129bb82613925565b8d6129d860018060a01b03809454600394851b1c16978892613d15565b526129eb6129e6888b613c37565b613925565b9054911b1c1691613925565b90919082549060031b9160018060a01b03809116831b921b1916179055565b612a27816129f76129e68588613c37565b8a52601f895260408a20612a3b81546142be565b90556142be565b61264a565b634e487b7160e01b8c52601260045260248cfd5b8234610660578060031936011261066057600d546040516001600160a01b039091168152602090f35b82346106605760203660031901126106605760043590602854821015610660576020612aaf83613925565b905460405160039290921b1c6001600160a01b03168152f35b82346106605780600319360112610660576020601354604051908152f35b8234610660578060031936011261066057602061189a613bef565b8234610660578060031936011261066057602060ff600d5460b81c166040519015158152f35b8234610660576020366003190112610660576020906040906001600160a01b03612b4f61385b565b168152602683522054604051908152f35b8234610660576040366003190112610660576024356001600160401b03811161054057612b91903690600401613887565b60025460081c6001600160a01b0316330361074957612baf81613cfe565b91612bbd60405193846139c4565b8183526020918284019060051b82019136831161203057905b828210612bea578561061286600435613df7565b81358152908301908301612bd6565b82346106605780600319360112610660576016546017546018546040516001600160a01b0384168152608093909290612c3c90602085019060a01c60ff166138e4565b60408301526060820152f35b823461066057608036600319011261066057612c6261385b565b50612c6b613871565b506064356001600160401b03811161054057612c8b9036906004016138b7565b5050604051630a85bd0160e11b8152602090f35b82346106605780600319360112610660576020600354604051908152f35b82346106605760209081600319360112610660576004356001600160401b03811161054057612cf0903690600401613887565b9190612cfa613c88565b6007549060ff8260a81c1660088110156107dc57600403610749578315610749576032841161074957600f5460018060a01b0390818160081c169384156132325760ff600d5460c81c166131a757821633036131b9575b60ff166004811015610d1f5780612fc6575083805b868110612e1d575050505050612d8590612d7e6146bc565b8092613f79565b80612d98575b5060018055604051908152f35b612e147fbcd905a8eb4cc473497e2cd24cf41334ea7fad80c354380f8fff04a025b1e5f891604051907402130ba31b41031b7b6b83632ba32b2103bb4ba341605d1b86830152603582015268206661696c7572657360b81b6055820152603e8152612e02816139a9565b6040519182918683528683019061381b565b0390a182612d8b565b612e30612e2b8289876146ac565b613b73565b83811690818452601f8a52612e5160408520548b8052604086205490613f79565b9082158015612fbe575b612fb257873b15610772576040516340c10f1960e01b81526001600160a01b0391909116600482015260248101829052848082604481838d5af19182612f9e575b5050612f6c57509060019182612eb0613d29565b6308c379a014612f26575b612ecb575b505b01925b92612d66565b612ed3613db8565b50600080516020615ee983398151915260405180612f1d816060906020815260176020820152762637bb96b632bb32b61036b4b73a34b7339032b93937b960491b60408201520190565b0390a289612ec0565b612f2e613d47565b80612f3a575b50612ebb565b905081600080516020615ee983398151915286928d612f6360405192828493845283019061381b565b0390a28b612f34565b9660019297612f989285528a805260408520612f89828254613c37565b9055612a3b6015918254613c37565b95612ec2565b612fa790613996565b61077257848c612e9c565b50505060010192612ec5565b508115612e5b565b9092906001036131a757836010549160115490825b888110612ff55750505050505050612d8590612d7e6146bc565b613003612e2b828b896146ac565b87811690818652601f8c5261302460408720548d8052604088205490613f79565b908215801561319f575b6131935761303c8683613c24565b90853b15611df657604051630ab714fb60e11b81526001600160a01b03919091166004820152602481018990526044810191909152868082606481838a5af1918261317b575b505061315857509060019182613096613d29565b6308c379a01461310c575b6130b1575b505b01945b94612fdb565b6130b9613db8565b50600080516020615ee983398151915260405180613103816060906020815260176020820152762637bb96b632bb32b61036b4b73a34b7339032b93937b960491b60408201520190565b0390a28b6130a6565b8c82613116613d47565b80613124575b5050506130a1565b600080516020615ee983398151915291929350899361314d60405192828493845283019061381b565b0390a28c828f61311c565b98600192996131759287528c805260408720612f89828254613c37565b976130a8565b61318490613996565b61318f57868e613082565b8680fd5b505050600101946130ab565b50811561302e565b60405163fd34e50560e01b8152600490fd5b604051638da5cb5b60e01b81528781600481885afa9081156117765790839187916131fa575b5016330315612d5157604051635c427cd960e01b8152600490fd5b809250898092503d831161322b575b61321381836139c4565b81010312612030576132258391613b87565b896131df565b503d613209565b60405163424ca23960e01b8152600490fd5b823461066057806003193601126106605761325d613c88565b600760ff815460a81c166008811015610ad957600403610540576016546001600160a01b03908116159190613290615c7f565b50600f54918260081c16801561323257600d9260ff845460c81c166136665760ff16600481101561367857806134f55750803b15612030576040516340c10f1960e01b81523360048201526024810183905290869081908390604490829084905af191826134e1575b505061344d5750918091610cad936001613311613d29565b6308c379a0146133e4575b61336b575b50505b61332f575b15615937565b602854600a5490818111613345575b5050613329565b60059161335191613f79565b1061335e575b838061333e565b613366615603565b613357565b613373613db8565b50604051600080516020615ee98339815191523391806133b88160609060208152601060208201526f131bddcb5b195d995b081c995d995c9d60821b60408201520190565b0390a2805460ff60d01b1916600160d01b179055805460ff60a81b1916600560a81b1790558480613321565b6133ec613d47565b806133f8575b5061331c565b90508690600080516020615ee983398151915260405160208152806134223394602083019061381b565b0390a2815460ff60d01b1916600160d01b178255825460ff60a81b1916600560a81b178355876133f2565b80925061345a9150615e90565b604051908152602090600080516020615f09833981519152823392a23383526026815261348b604084205433615aee565b604051636e8b38db60e01b8152336004820152818160248187305af16134b8575b505080610cad91613324565b813d83116134da575b6134cb81836139c4565b81010312610cea5782806134ac565b503d6134c1565b6134ea90613996565b6120305785876132f9565b600103613666578560105491836011540290803b1561074957604051630ab714fb60e11b8152336004820152602481019490945260448401919091528290606490829084905af19081613653575b5061344d5750918091610cad93600161355a613d29565b6308c379a0146135ea575b613571575b5050613324565b613579613db8565b50604051600080516020615ee98339815191523391806135be8160609060208152601060208201526f131bddcb5b195d995b081c995d995c9d60821b60408201520190565b0390a2805460ff60d01b1916600160d01b179055805460ff60a81b1916600560a81b179055848061356a565b6135f2613d47565b806135fe575b50613565565b90508690600080516020615ee983398151915260405160208152806136283394602083019061381b565b0390a2815460ff60d01b1916600160d01b178255825460ff60a81b1916600560a81b178355876135f8565b61365f90969196613996565b9486613543565b604051631558dc5f60e31b8152600490fd5b634e487b7160e01b87526021600452602487fd5b8234610660578060031936011261066057602060065460801c604051908152f35b8234610660578060031936011261066057602060ff600d5460a01c166040519015158152f35b82346106605780600319360112610660576020601054604051908152f35b82346106605780600319360112610660576020602a54604051908152f35b82346106605780600319360112610660576020601854604051908152f35b823461066057806003193601126106605761375d6137496139e5565b60405191829160208352602083019061381b565b0390f35b82346106605780600319360112610660576020602e54604051908152f35b82346106605780600319360112610660576020602b54604051908152f35b82346106605780600319360112610660576007546040516001600160a01b039091168152602090f35b8390346105405760203660031901126105405760043563ffffffff60e01b81168091036107495760209250630a85bd0160e11b811490811561380a575b5015158152f35b630271189760e51b14905083613803565b919082519283825260005b848110613847575050826000602080949584010152601f8019910116010190565b602081830181015184830182015201613826565b600435906001600160a01b0382168203610cea57565b602435906001600160a01b0382168203610cea57565b9181601f84011215610cea578235916001600160401b038311610cea576020808501948460051b010111610cea57565b9181601f84011215610cea578235916001600160401b038311610cea5760208381860195010111610cea57565b9060048210156138f15752565b634e487b7160e01b600052602160045260246000fd5b34610cea576000366003190112610cea576020600c54604051908152f35b60285481101561293f5760286000527fe16da923a2d88192e5070f37b4571d58682c0d66212ec634d495f33de3f77ab50190600090565b90600182811c9216801561398c575b602083101461397657565b634e487b7160e01b600052602260045260246000fd5b91607f169161396b565b6001600160401b038111611d1e57604052565b606081019081106001600160401b03821117611d1e57604052565b90601f801991011681019081106001600160401b03821117611d1e57604052565b60405190600082600954916139f98361395c565b80835292600190818116908115613a6f5750600114613a22575b50613a20925003836139c4565b565b600960009081529150600080516020615f298339815191525b848310613a545750613a20935050810160200138613a13565b81935090816020925483858a01015201910190918592613a3b565b905060209250613a2094915060ff191682840152151560051b82010138613a13565b6000546001600160a01b03163303613aa557565b606460405162461bcd60e51b815260206004820152602060248201527f4f776e61626c653a2063616c6c6572206973206e6f7420746865206f776e65726044820152fd5b600080546001600160a01b039283166001600160a01b03198216811783559216907f8be0079c531659141344cd1fd0a4f28419497f9722a3daafe3b4186f6b6457e09080a3565b6044356001600160a01b0381168103610cea5790565b60a4356001600160a01b0381168103610cea5790565b610124356001600160a01b0381168103610cea5790565b356001600160a01b0381168103610cea5790565b51906001600160a01b0382168203610cea57565b908160a0910312610cea57613baf81613b87565b91602082015191604081015191606082015163ffffffff81168103610cea5760809092015161ffff81168103610cea5790565b358015158103610cea5790565b6006546001600160801b0390818160801c911601818111613c0e571690565b634e487b7160e01b600052601160045260246000fd5b81810292918115918404141715613c0e57565b91908201809211613c0e57565b939092859360a09693600180891b038092168752166020860152604085015260806060850152816080850152848401376000828201840152601f01601f1916010190565b600260015414613c99576002600155565b60405162461bcd60e51b815260206004820152601f60248201527f5265656e7472616e637947756172643a207265656e7472616e742063616c6c006044820152606490fd5b8115613ce8570490565b634e487b7160e01b600052601260045260246000fd5b6001600160401b038111611d1e5760051b60200190565b805182101561293f5760209160051b010190565b60009060033d11613d3657565b905060046000803e60005160e01c90565b600060443d10613da457604051600319913d83016004833e81516001600160401b03918282113d602484011117613da757818401948551938411613daf573d85010160208487010111613da75750613da4929101602001906139c4565b90565b949350505050565b50949350505050565b3d15613df2573d906001600160401b038211611d1e5760405191613de6601f8201601f1916602001846139c4565b82523d6000602084013e565b606090565b60045460009103613f6257600d805460ff60e81b1916600160e81b178155825190929015613f4e576020015190303b156106605760405191631000850d60e21b83526004830152808260248183305af19182613f3f575b5090613f3b57600190613e5f613d29565b6308c379a014613ec1575b50613e725750565b7fbccec8509a79ecd26780c2699a3ca2503c3a3455b361b5fcda5760593edb03c9613e9e613749613db8565b0390a16007805460ff60a81b1916600160a91b179055805460ff60e01b19169055565b613ec9613d47565b9081613ed6575b50613e6a565b7fbcd905a8eb4cc473497e2cd24cf41334ea7fad80c354380f8fff04a025b1e5f8919250613f13909260405191829160208352602083019061381b565b0390a16007805460ff60a81b1916600160a91b179055815460ff60e01b191682553880613ed0565b5050565b613f4890613996565b38613e4e565b634e487b7160e01b82526032600452602482fd5b50506007805460ff60a81b1916600160a91b179055565b91908203918211613c0e57565b600080546007546001600160a01b03918216919060a81c60ff1660088110156107dc576001146142b1575b6007549060ff8260a81c166008811015610d1f57600281149081156142a6575b50156107765760285492602b5493613fe98582613f79565b80613ff9600a54602c5490613f79565b601e8111156142a15750601e5b80602d5511614298575b50602d5493841561428057506004929160a0917f4ff4e84912750d469e8d0e190997710c06112023943415787c2f744eb09c0da46060602e5492604098895191825260209a8b83015289820152a2845163ec644ddd60e01b815293849182905afa801561427657859186908794889361424d575b5060025460081c1691855190878201926001600160401b03938381108582111761423957885289835287519263125fa26760e31b8a8501525115156024840152602483526140d1836139a9565b87519360c08501908111858210176142395789969594938b938893614171938c5286528386019788528a8087019a61ffff8093168c526060880163ffffffff9384809316825260808a01936001855260a08b01968752519d8e9c8d9b8c9a634d8e1c2f60e11b8c5260048c01525160248b01525160448a01525116606488015251166084860152511660a48401525160c060c484015260e483019061381b565b03925af193841561422e5780946141dc575b50506004839055600d805460ff60e01b1916600160e01b1790556007805460ff60a81b1916600360a81b1790555191825233917fcd4a2eb17c38ad25b7c647235e9d74821d3613b50c9ec8907609b5728bc674b09190a2565b909193508282813d8311614227575b6141f581836139c4565b81010312610660575051917fcd4a2eb17c38ad25b7c647235e9d74821d3613b50c9ec8907609b5728bc674b038614183565b503d6141eb565b8251903d90823e3d90fd5b634e487b7160e01b8b52604160045260248bfd5b925093505061426a915060a03d81116117b5576117a181836139c4565b90949293509138614084565b83513d87823e3d90fd5b60ff60a81b1916600160aa1b17600755505050505050565b602d5538614010565b614006565b600391501438613fd1565b6142b961536f565b613fb1565b6000198114613c0e5760010190565b90816020910312610cea57518015158103610cea5790565b600d5460ff60009160c81c16158061469f575b613666576016546001600160a01b03908116158015929091614318615c7f565b5092600a54908580614694575b1561468d57602c54925b60ff600e541661460557806012541690600f549060ff82169160081c16918061453d575b506004948582101561452a578790600383146144b5575b50501561441f575b5060209394503385526026845261438d604086205433615aee565b6143e8575b50602460405180948193636e8b38db60e01b83523390830152305af16143bd575b50613a2090615937565b602090813d81116143e1575b6143d381836139c4565b81010312610cea57386143b3565b503d6143c9565b6028548181116143f9575b50614392565b60059161440591613f79565b10614412575b38806143f3565b61441a615603565b61440b565b601054813b1561203057604080516323b872dd60e01b815230878201908152336020820152918201929092529091869183919082908490829060600103925af180156144aa57614498575b508461447860209596615e90565b604051908152600080516020615f09833981519152853392a28493614372565b936144a4602095613996565b9361446a565b6040513d87823e3d90fd5b6144c190601454613cde565b028015614519578680808084335af16144d8613db8565b5015614508576144e788615e90565b604051908152600080516020615f0983398151915260203392a2863861436a565b60405163880a149160e01b81528690fd5b604051630193f71f60e51b81528690fd5b634e487b7160e01b875260218652602487fd5b61454b868960135402613cde565b9081156145f35760405163a9059cbb60e01b81523360048201526024810183905290602090829060449082908c905af19081156145e85788916145ca575b50156145b85761459888615e90565b604051908152600080516020615f0983398151915260203392a238614353565b60405163880a149160e01b8152600490fd5b6145e2915060203d811161064e5761064081836139c4565b38614589565b6040513d8a823e3d90fd5b604051630193f71f60e51b8152600490fd5b50505090929161462b6146248261461f601b549586613cde565b613c24565b8093613f79565b601b558380808085335af161463e613db8565b50156145b857613a209361468092614657604093615e90565b8251908152600080516020615f0983398151915260203392a23381526026602052205433615aee565b614688615603565b615937565b819261432f565b5081602c5410614325565b5060ff600e5416156142f8565b919081101561293f5760051b0190565b601654600a546001600160a01b03918216151580614781575b1561477c5750602c545b601554146146ea5750565b6007805460ff60a81b1916600360a91b179055600054604051630425172560e31b81523060048201529160209183916024918391165afa9081156147705760009161473f575b5061473757565b613a2061594f565b906020823d8211614768575b81614758602093836139c4565b8101031261066057505138614730565b3d915061474b565b6040513d6000823e3d90fd5b6146df565b5080602c54106146d5565b600d5460ff90818160d01c166149c55760075490828260a81c169160088310156138f157600783146149615760a01c831680614955575b80614949575b8061493e575b61489d5760a81c821615908161487e575b506147ec575050600090565b60009160018060a01b03168252602660205260408220541515908161486a575b506148145790565b602660205261482a604082205460055490613c24565b611f409081810291818304149015171561485657612710900480601d541015614851575090565b905090565b634e487b7160e01b82526011600452602482fd5b90506022602052604082205416153861480c565b6004811491508115614892575b50386147e0565b60069150143861488b565b5050509060009160018060a01b0316825260266020526040822054601f602052604083205460236020526040842054918181118061492c575b6148df57505050565b6148ed929161296391613f79565b60055460195490612710918203948286116149185750613da4939461491191613c24565b0490613c24565b634e487b7160e01b81526011600452602490fd5b506149378282613f79565b83106148d6565b50601c5415156147cf565b50828160b81c166147c9565b50828160a81c166147c3565b506001600160a01b0390931660009081526026602052604090205490508061498c575b505050600090565b60055461499891613c24565b9160a81c166149b55780601d541015613da457505b388080614984565b80601b541015613da457506149ad565b908060075460a01c169182614a2c575b505080614a0b575b6149e75750600090565b6001600160a01b0316600090815260266020526040902054600554613da491613c24565b506001600160a01b03811660009081526026602052604090205415156149dd565b60a81c16905038806149d5565b60075460ff90818160a81c1690600882101590816138f1576004928381148015614f53575b838115614f43575b8115614f1e575b5015614f1357600d5492858460d01c16600014614b5957505050506001600160a01b0383166000818152602260205260408120549193909250908116614b3b5760266020526040822054908115614b51578060075460a01c169081614b42575b5015614b3b57818080614ae4819460055490613c24565b8097878352602260205260408320600160ff198254161790555af1614b07613db8565b501561066057507f358fe4192934d3bf28ae181feda1f4bd08ca67f5e2fad55582cce5eb67304ae96020604051848152a290565b5091505090565b9050600d5460a81c1638614acd565b505091505090565b95939495614efe57859190600703614c1e575050506001600160a01b03811660008181526022602052604081205491935091908416614b3b57602660205260408220548015614b5157600554614bae91613c24565b93600d5460a81c16600014614bfc57601b54848110614b51578280868194614bd7828496613f79565b601b555b878352602260205260408320805460ff191660011790555af1614b07613db8565b601d54848110614b51578280868194614c16828496613f79565b601d55614bdb565b60a01c1680614ef2575b80614ee6575b80614edb575b15614d9357506001600160a01b038116600081815260266020908152604080832054601f8352818420546023845282852054979850929691949290818111801590614d80575b614d7457614c8c929161296391613f79565b95600554906019549161271092830391838311614d615750614cb99291614cb291613c24565b0487613c24565b95601c54808811614d565787614cce91613f79565b601c5581835260238652614ce6848420918254613c37565b90558180808089885af1614cf8613db8565b501561054057807f358fe4192934d3bf28ae181feda1f4bd08ca67f5e2fad55582cce5eb67304ae9868551898152a28152601f84528181205415614d3e575b5050505090565b6026614d4d9452205490615aee565b38808080614d37565b505050935050505090565b634e487b7160e01b865260119052602485fd5b50505050935050505090565b50614d8b8282613f79565b831015614c7a565b60a81c831615614da557505050600090565b6001600160a01b038116600081815260266020908152604080832054919590939115614ed15760228652868484205416614ed15760268652614ded8484205460055490613c24565b90611f4091828102928184041490151715614ebe5750612710900495601d54878110614d565787614e1d91613f79565b601d5581835260228652838320805460ff19166001179055828080808a895af1614e45613db8565b501561074957817f358fe4192934d3bf28ae181feda1f4bd08ca67f5e2fad55582cce5eb67304ae98786518a8152a260075460a01c16158015614eac575b614e90575b505050505090565b614ea294602691835252205490615aee565b3880808080614e88565b50808252601f85528282205415614e83565b634e487b7160e01b845260119052602483fd5b5050935050505090565b50601c541515614c34565b50838160b81c16614c2e565b50838160a81c16614c28565b602185634e487b7160e01b6000525260246000fd5b505050505050600090565b9050614f2e576007811483614a6d565b602184634e487b7160e01b6000525260246000fd5b9050614f2e576005811483614a66565b506000925060068114614a5e565b600780549060ff90818360a81c1660088110156138f157818114610cea57614f87613bef565b4210610cea576016546001600160a01b0394908516159160018103615136575050156150ee57602854600a541115610cea57805460ff60a81b1916600760a81b1781555b81815460a81c1660088110156138f1578103610cea578190614feb6159f0565b614ff36153b0565b5460a01c16806150de575b806150b4575b61500c575050565b80600d5460c81c16613f3b57600f5490811660048110156138f15761506f5750600f5460081c16803b15610cea5760008091602460405180948193636382ff5160e11b83523060048401525af18015614770576150665750565b613a2090613996565b60081c1660105490803b15610cea57604051631d8efab160e21b815230600482015260248101929092526000908290604490829084905af18015614770576150665750565b5080600f541660048110156138f15780159081156150d3575b50615004565b6001915014386150cd565b5081600f5460081c161515614ffe565b600a54603281029080820460321490151715613c0e5760649004801561512e575b6028541015610cea57805460ff60a81b1916600760a81b178155614fcb565b50600161510f565b90915015615145575b50614fcb565b60ff60a81b1916600760a81b1781553861513f565b6012546001600160a01b03908116610cea57601454610cea5761517b613bef565b421015610cea576000908082541633148015615362575b156105405760075460ff90818160a81c166008811015610d1f578015908115615357575b501561077657818160a01c16808091615319575b8061530a575b610772571561077657600d805460ff60d01b1916600160d01b17905560ff60a81b1916600560a81b176007556152046159f0565b61520c6153b0565b8060075460a01c16806152fa575b806152d0575b61522957505050565b80600d5460c81c166152cb57600f5490811660048110156107dc576152845750600f5460081c16803b1561054057818091602460405180958193636382ff5160e11b83523060048401525af1908115611f5757506150665750565b60081c16601054813b1561074957604051631d8efab160e21b81523060048201526024810191909152919081908390604490829084905af1908115611f5757506150665750565b505050565b5080600f541660048110156107dc5780159081156152ef575b50615220565b6001915014386152e9565b5081600f5460081c16151561521a565b5082600d5460a81c16156151d0565b5082600f54166004811015615343578015908115615338575b506151ca565b600191501438615332565b634e487b7160e01b86526021600452602486fd5b6001915014386151b6565b5080600754163314615192565b6007805460ff60a81b1916600160a91b1790556040514281527f7ec14564eed3e841911f7412fd555aa022b64c2b1ae4b3da14fcacc8c0c4bf7190602090a1565b60075460ff8160a01c168015613f3b57806155f4575b6153cd5750565b6012546001600160a01b0391908216156154c157508060125416604051916370a0823160e01b83523060048401526020928381602481865afa90811561477057600091615494575b5080615422575b50505050565b60075460405163a9059cbb60e01b815292166001600160a01b0316600483015260248201529082908290816000816044810103925af191821561477057600092615477575b505015610cea573880808061541c565b61548d9250803d1061064e5761064081836139c4565b3880615467565b908482813d83116154ba575b6154aa81836139c4565b8101031261066057505138615415565b503d6154a0565b600f5460ff811660048110156138f1576003810361550a5750505060145490816154e9575050565b6000808080948194600754165af16154ff613db8565b501561066057601455565b1561551457505050565b829060081c16601054906040516331a9108f60e11b8152826004820152602081602481855afa908115614770576000916155bb575b50841630146155585750505050565b803b15610cea576040516323b872dd60e01b8152306004820152939092166001600160a01b03166024840152604483015260009082908183816064810103925af18015614770576155ac575b80808061541c565b6155b590613996565b386155a4565b906020823d82116155ec575b816155d4602093836139c4565b8101031261066057506155e690613b87565b38615549565b3d91506155c7565b5060ff600d5460c81c166153c6565b600060018060a01b0381541660ff8060075460a01c16806157e0575b806157bb575b615704575b600d5460a81c161561563a575050565b6008548061564c575050506001600855565b600181036156665750505061565f6157ee565b6002600855565b600281036156ea5750602060249160405192838092630425172560e31b82523060048301525afa918215611f575780926156b6575b50506156a9575b6003600855565b6156b161594f565b6156a2565b9091506020823d82116156e2575b816156d1602093836139c4565b81010312610660575051388061569b565b3d91506156c4565b90506003915003613a20576156fd615bcf565b6004600855565b82601e546157ab575b81600d5460b81c1615908115615792575b501561562a57604051630425172560e31b8152306004820152602081602481865afa908115612239578491615761575b501561562a5761575c61594f565b61562a565b90506020813d821161578a575b8161577b602093836139c4565b8101031261077657513861574e565b3d915061576e565b905015806157a1575b3861571e565b50601e541561579b565b506157b46157ee565b600161570d565b5080600e541680615625575080600d5460b81c1680156156255750601c541515615625565b5080600d5460a81c1661561f565b6000600d5460ff90818160d81c168061592c575b6158c2575b818160a81c1615806158b7575b61582c575b5050806158235750565b613a2090615a33565b60b01c8116156158865760075460a81c1660088110156138f157600603610cea575b601d546107d091828202928284041482151715613c0e5761587761271061587f94048093613f79565b601d55613c37565b3880615819565b60075460a81c1660088110156138f157600481149081156158ac575b5061584e57600080fd5b6006915014386158a2565b50601d541515615814565b91818360b01c166000146158f8578160075460a81c1660088110156119365760060361066057505b601e54916000601e55615807565b8160075460a81c1660088110156119365760048114908115615921575b501561066057506158ea565b600691501438615915565b50601e541515615802565b15613a2057602c5460285403613a2057613a20615603565b600060018060a01b03815416600354801561074957813b1561074957604051633d40f28f60e01b81523060048201526024810191909152919081908390818381604481015b03925af1908115611f5757506150665750565b600060018060a01b03815416600354801561074957813b156107495760405163032a136160e11b8152306004820152602481019190915291908190839081838160448101615994565b600060018060a01b03815416600354813b1561074957604051630221a1c360e51b8152306004820152602481019190915291908190839081838160448101615994565b6000805460405163524d530b60e01b81529192906001600160a01b03906020908490600490829085165afa928315612239578493615ab3575b508216156107495782918291604051906020820191635e5bc1c560e11b835281602482015260248152615a9e816139a9565b51925af1615aaa613db8565b50156106605750565b9092506020813d8211615ae6575b81615ace602093836139c4565b8101031261077657615adf90613b87565b9138615a6c565b3d9150615ac1565b60008054604051633527d9bd60e21b815292949391926001600160a01b03916020908290600490829086165afa908115612239578491615b96575b501680615b38575b5050509050565b803b1561074957604051637505fc8960e01b81523060048201526001600160a01b0395909516602486015260448501919091529192918290606490829084905af1615b87575b80808392615b31565b615b9090613996565b38615b7e565b90506020813d8211615bc7575b81615bb0602093836139c4565b8101031261077657615bc190613b87565b38615b29565b3d9150615ba3565b60008054604051633527d9bd60e21b81526001600160a01b03916020908290600490829086165afa908115615c74578391615c3b575b501680615c10575050565b803b15610540578190602460405180948193630377bc0960e11b83523060048401525af16150665750565b90506020813d8211615c6c575b81615c55602093836139c4565b8101031261074957615c6690613b87565b38615c05565b3d9150615c48565b6040513d85823e3d90fd5b6000338152602091601f8352604080832054928315615e7f573381528480528181205494858503958514615e6e5760165485939291906001600160a01b0381169081615cd1575b505033825280522055565b60ff91929394955060a01c1660048110156107dc5786949392919080615d6d57508394509060249181939451928380926370a0823160e01b82523360048301525afa908115615d63578391615d36575b506017541161054057908492915b3880615cc6565b90508181813d8311615d5c575b615d4d81836139c4565b81010312610749575138615d21565b503d615d43565b84513d85823e3d90fd5b60018103615df157506018548451627eeac760e11b81523360048201526024810191909152939450919290918290829060449082905afa908115615d63578391615dc4575b50601754116105405790849291615d2f565b90508181813d8311615dea575b615ddb81836139c4565b81010312610749575138615db2565b503d615dd1565b600214615dff575b50615d2f565b8394509060249181939451928380926370a0823160e01b82523360048301525afa908115615d63578391615e41575b5060175411610540579084929138615df9565b90508181813d8311615e67575b615e5881836139c4565b81010312610749575138615e2e565b503d615e4e565b8251630ccaf35d60e41b8152600490fd5b81516358cd4fc160e11b8152600490fd5b601654600a54906001600160a01b0316151580615edd575b15615ed75750602c54905b601554018060155514615ec257565b6007805460ff60a81b1916600360a91b179055565b90615eb3565b5080602c5410615ea856fe18381720d6efb26847068a65e3be979f1243520b7db6b16331969a7acdb200d595681e512bc0fe659e195e06c283eada494316f3d801213e48e7101af92bf7706e1540171b6c0c960b71a7020d9f60077f6af931a8bbf590da0223dacf75c7afa2646970667358221220b42190a2d4e08a1090d06049dc1ff822dc03852ddf272beffdbe86bc9039e5a464736f6c63430008130033",
  "linkReferences": {},
  "deployedLinkReferences": {}
}