{
  "_format": "hh-sol-artifact-1",
  "contractName": "PoolRouter",
  "sourceName": "contracts/PoolRouter.sol",
  "abi": [
    {
      "anonymous": false,
      "inputs": [
        {
          "indexed": true,
          "internalType": "address",
          "name": "caller",
          "type": "address"
        },
        {
          "indexed": false,
          "internalType": "uint256",
          "name": "successCount",
          "type": "uint256"
        },
        {
          "indexed": false,
          "internalType": "uint256",
          "name": "poolCount",
          "type": "uint256"
        }
      ],
      "name": "BatchCreatorPointsClaimed",
      "type": "event"
    },
    {
      "anonymous": false,
      "inputs": [
        {
          "indexed": true,
          "internalType": "address",
          "name": "participant",
          "type": "address"
        },
        {
          "indexed": false,
          "internalType": "uint256",
          "name": "successCount",
          "type": "uint256"
        },
        {
          "indexed": false,
          "internalType": "uint256",
          "name": "poolCount",
          "type": "uint256"
        }
      ],
      "name": "BatchParticipantPointsClaimed",
      "type": "event"
    },
    {
      "anonymous": false,
      "inputs": [
        {
          "indexed": true,
          "internalType": "address",
          "name": "participant",
          "type": "address"
        },
        {
          "indexed": false,
          "internalType": "uint256",
          "name": "successCount",
          "type": "uint256"
        },
        {
          "indexed": false,
          "internalType": "uint256",
          "name": "poolCount",
          "type": "uint256"
        }
      ],
      "name": "BatchRefundClaimed",
      "type": "event"
    },
    {
      "anonymous": false,
      "inputs": [
        {
          "indexed": true,
          "internalType": "address",
          "name": "caller",
          "type": "address"
        },
        {
          "indexed": false,
          "internalType": "uint256",
          "name": "successCount",
          "type": "uint256"
        },
        {
          "indexed": false,
          "internalType": "uint256",
          "name": "poolCount",
          "type": "uint256"
        }
      ],
      "name": "BatchRevenueWithdrawn",
      "type": "event"
    },
    {
      "inputs": [
        {
          "internalType": "address[]",
          "name": "pools",
          "type": "address[]"
        }
      ],
      "name": "batchClaimCreatorPoints",
      "outputs": [],
      "stateMutability": "nonpayable",
      "type": "function"
    },
    {
      "inputs": [
        {
          "internalType": "address",
          "name": "participant",
          "type": "address"
        },
        {
          "internalType": "address[]",
          "name": "pools",
          "type": "address[]"
        }
      ],
      "name": "batchClaimParticipantPoints",
      "outputs": [],
      "stateMutability": "nonpayable",
      "type": "function"
    },
    {
      "inputs": [
        {
          "internalType": "address",
          "name": "participant",
          "type": "address"
        },
        {
          "internalType": "address[]",
          "name": "pools",
          "type": "address[]"
        }
      ],
      "name": "batchClaimRefunds",
      "outputs": [],
      "stateMutability": "nonpayable",
      "type": "function"
    },
    {
      "inputs": [
        {
          "internalType": "address",
          "name": "participant",
          "type": "address"
        },
        {
          "internalType": "address[]",
          "name": "pools",
          "type": "address[]"
        }
      ],
      "name": "batchGetRefundableAmounts",
      "outputs": [
        {
          "internalType": "uint256[]",
          "name": "amounts",
          "type": "uint256[]"
        },
        {
          "internalType": "uint256",
          "name": "total",
          "type": "uint256"
        }
      ],
      "stateMutability": "view",
      "type": "function"
    },
    {
      "inputs": [
        {
          "internalType": "address[]",
          "name": "pools",
          "type": "address[]"
        }
      ],
      "name": "batchWithdrawCreatorRevenue",
      "outputs": [],
      "stateMutability": "nonpayable",
      "type": "function"
    }
  ],
  "bytecode": "0x608080604052346100165761068a908161001c8239f35b600080fdfe60406080815260048036101561001457600080fd5b600090813560e01c806302f70b99146104515780633ff1216214610379578063b62262311461028a578063c46db26c1461013b5763e5d7a48d1461005757600080fd5b346101375761006536610572565b849592919593855b8281106100b1575050825193845260208401526001600160a01b0316917f93a9e9a7f7ba2aa7b34a6b25e1ec0b9d516b8956fc66b0accc261ae3706726b29190a280f35b6001600160a01b03806100cd6100c884878d6105b6565b6105dc565b1690816100df575b505060010161006d565b813b15610133578891602483928951948593849263a5beb4e560e01b84528b16898401525af19081610124575b50610119575b38806100d5565b600190950194610112565b61012d906105f0565b3861010c565b8880fd5b5080fd5b508290346102865761014c36610572565b93909194809261015b8661063c565b956101688451978861061a565b8087526101748161063c565b602098888a019791601f1901368937845b8381106101cd57505050505090805194818601918652518091526060850193915b8181106101b95750505082938301520390f35b8251855293860193918601916001016101a6565b6001600160a01b03806101e46100c884888a6105b6565b1690816101f6575b5050600101610185565b8c895180938193630e81c43360e31b835287168883015260249384915afa889281610257575b50156101ec578b99919299518a10156102465750600589901b8b018c01829052019660018c6101ec565b634e487b7160e01b88526032855287fd5b9092508d81813d831161027f575b61026f818361061a565b810103126101335751918e61021c565b503d610265565b8280fd5b50823461028657602036600319011261028657813567ffffffffffffffff8111610375576102bb903690840161053c565b908493855b8381106102fd57505050907fdcab3132ac6e3edf5f828d71b8c89248716fe585a626902ff241de7cee177f7891815193845260208401523392a280f35b866001600160a01b036103146100c88488886105b6565b1680610325575b50506001016102c0565b803b156101375781906024885180948193631b5765e360e11b835233898401525af19081610366575b5061035b575b868861031b565b600190950194610354565b61036f906105f0565b8861034e565b8380fd5b50346101375761038836610572565b849592919593855b8281106103d4575050825193845260208401526001600160a01b0316917f94206fe5084f860030e1b4dbebe99adc47504954020598e6f6117380261a47fc9190a280f35b6001600160a01b03806103eb6100c884878d6105b6565b1690816103fd575b5050600101610390565b813b156101335788916024839289519485938492637f141ad160e01b84528b16898401525af19081610442575b50610437575b38806103f3565b600190950194610430565b61044b906105f0565b3861042a565b50823461028657602036600319011261028657813567ffffffffffffffff811161037557610482903690840161053c565b908493855b8381106104c457505050907fadf2a059bd6a03e8bf604545e437066d472df192a3469fc8a8cd46d63aafbd8391815193845260208401523392a280f35b866001600160a01b036104db6100c88488886105b6565b16806104ec575b5050600101610487565b803b1561013757819060248851809481936366f2145760e01b835233898401525af1908161052d575b50610522575b86886104e2565b60019095019461051b565b610536906105f0565b88610515565b9181601f8401121561056d5782359167ffffffffffffffff831161056d576020808501948460051b01011161056d57565b600080fd5b90604060031983011261056d576004356001600160a01b038116810361056d57916024359067ffffffffffffffff821161056d576105b29160040161053c565b9091565b91908110156105c65760051b0190565b634e487b7160e01b600052603260045260246000fd5b356001600160a01b038116810361056d5790565b67ffffffffffffffff811161060457604052565b634e487b7160e01b600052604160045260246000fd5b90601f8019910116810190811067ffffffffffffffff82111761060457604052565b67ffffffffffffffff81116106045760051b6020019056fea2646970667358221220997afff736cb0a1aedd32af2eeab02caa84f7403f4e36182ebda86d2fa20b68d64736f6c63430008130033",
  "linkReferences": {},
  "deployedLinkReferences": {}
}